{
  "_format": "hh-sol-artifact-1",
  "contractName": "ModuleCore",
  "sourceName": "contracts/core/ModuleCore.sol",
  "abi": [
    {
      "inputs": [
        {
          "internalType": "address",
          "name": "target",
          "type": "address"
        }
      ],
      "name": "AddressEmptyCode",
      "type": "error"
    },
    {
      "inputs": [],
      "name": "AlreadyInitialized",
      "type": "error"
    },
    {
      "inputs": [
        {
          "internalType": "address",
          "name": "implementation",
          "type": "address"
        }
      ],
      "name": "ERC1967InvalidImplementation",
      "type": "error"
    },
    {
      "inputs": [],
      "name": "ERC1967NonPayable",
      "type": "error"
    },
    {
      "inputs": [],
      "name": "FailedInnerCall",
      "type": "error"
    },
    {
      "inputs": [
        {
          "internalType": "uint256",
          "name": "available",
          "type": "uint256"
        },
        {
          "internalType": "uint256",
          "name": "requested",
          "type": "uint256"
        }
      ],
      "name": "InsufficientLiquidity",
      "type": "error"
    },
    {
      "inputs": [
        {
          "internalType": "address",
          "name": "asset",
          "type": "address"
        }
      ],
      "name": "InvalidAsset",
      "type": "error"
    },
    {
      "inputs": [],
      "name": "InvalidFees",
      "type": "error"
    },
    {
      "inputs": [],
      "name": "InvalidInitialization",
      "type": "error"
    },
    {
      "inputs": [],
      "name": "LVDepositPaused",
      "type": "error"
    },
    {
      "inputs": [],
      "name": "LVWithdrawalPaused",
      "type": "error"
    },
    {
      "inputs": [],
      "name": "NotExpired",
      "type": "error"
    },
    {
      "inputs": [],
      "name": "NotInitializing",
      "type": "error"
    },
    {
      "inputs": [],
      "name": "OnlyConfigAllowed",
      "type": "error"
    },
    {
      "inputs": [],
      "name": "OnlyFlashSwapRouterAllowed",
      "type": "error"
    },
    {
      "inputs": [
        {
          "internalType": "address",
          "name": "owner",
          "type": "address"
        }
      ],
      "name": "OwnableInvalidOwner",
      "type": "error"
    },
    {
      "inputs": [
        {
          "internalType": "address",
          "name": "account",
          "type": "address"
        }
      ],
      "name": "OwnableUnauthorizedAccount",
      "type": "error"
    },
    {
      "inputs": [],
      "name": "PSMDepositPaused",
      "type": "error"
    },
    {
      "inputs": [],
      "name": "PSMWithdrawalPaused",
      "type": "error"
    },
    {
      "inputs": [],
      "name": "StateLocked",
      "type": "error"
    },
    {
      "inputs": [],
      "name": "UUPSUnauthorizedCallContext",
      "type": "error"
    },
    {
      "inputs": [
        {
          "internalType": "bytes32",
          "name": "slot",
          "type": "bytes32"
        }
      ],
      "name": "UUPSUnsupportedProxiableUUID",
      "type": "error"
    },
    {
      "inputs": [],
      "name": "Uinitialized",
      "type": "error"
    },
    {
      "inputs": [],
      "name": "Uinitialized",
      "type": "error"
    },
    {
      "inputs": [],
      "name": "ZeroAddress",
      "type": "error"
    },
    {
      "inputs": [],
      "name": "ZeroDeposit",
      "type": "error"
    },
    {
      "anonymous": false,
      "inputs": [
        {
          "indexed": true,
          "internalType": "Id",
          "name": "Id",
          "type": "bytes32"
        },
        {
          "indexed": true,
          "internalType": "uint256",
          "name": "dsId",
          "type": "uint256"
        },
        {
          "indexed": true,
          "internalType": "address",
          "name": "redeemer",
          "type": "address"
        },
        {
          "indexed": false,
          "internalType": "uint256",
          "name": "raAmount",
          "type": "uint256"
        },
        {
          "indexed": false,
          "internalType": "uint256",
          "name": "swapAmount",
          "type": "uint256"
        },
        {
          "indexed": false,
          "internalType": "uint256",
          "name": "dSexchangeRates",
          "type": "uint256"
        }
      ],
      "name": "Cancelled",
      "type": "event"
    },
    {
      "anonymous": false,
      "inputs": [
        {
          "indexed": true,
          "internalType": "Id",
          "name": "Id",
          "type": "bytes32"
        },
        {
          "indexed": true,
          "internalType": "uint256",
          "name": "dsId",
          "type": "uint256"
        },
        {
          "indexed": true,
          "internalType": "address",
          "name": "redeemer",
          "type": "address"
        },
        {
          "indexed": false,
          "internalType": "uint256",
          "name": "amount",
          "type": "uint256"
        },
        {
          "indexed": false,
          "internalType": "uint256",
          "name": "paReceived",
          "type": "uint256"
        },
        {
          "indexed": false,
          "internalType": "uint256",
          "name": "raReceived",
          "type": "uint256"
        }
      ],
      "name": "CtRedeemed",
      "type": "event"
    },
    {
      "anonymous": false,
      "inputs": [
        {
          "indexed": true,
          "internalType": "Id",
          "name": "Id",
          "type": "bytes32"
        },
        {
          "indexed": true,
          "internalType": "uint256",
          "name": "dsId",
          "type": "uint256"
        },
        {
          "indexed": true,
          "internalType": "address",
          "name": "redeemer",
          "type": "address"
        },
        {
          "indexed": false,
          "internalType": "uint256",
          "name": "amount",
          "type": "uint256"
        },
        {
          "indexed": false,
          "internalType": "uint256",
          "name": "received",
          "type": "uint256"
        },
        {
          "indexed": false,
          "internalType": "uint256",
          "name": "dsExchangeRate",
          "type": "uint256"
        },
        {
          "indexed": false,
          "internalType": "uint256",
          "name": "feePrecentage",
          "type": "uint256"
        },
        {
          "indexed": false,
          "internalType": "uint256",
          "name": "fee",
          "type": "uint256"
        }
      ],
      "name": "DsRedeemed",
      "type": "event"
    },
    {
      "anonymous": false,
      "inputs": [
        {
          "indexed": true,
          "internalType": "Id",
          "name": "Id",
          "type": "bytes32"
        },
        {
          "indexed": false,
          "internalType": "uint256",
          "name": "earlyRedemptionFeeRate",
          "type": "uint256"
        }
      ],
      "name": "EarlyRedemptionFeeRateUpdated",
      "type": "event"
    },
    {
      "anonymous": false,
      "inputs": [
        {
          "indexed": true,
          "internalType": "Id",
          "name": "Id",
          "type": "bytes32"
        },
        {
          "indexed": true,
          "internalType": "uint256",
          "name": "newEarlyRedemptionFee",
          "type": "uint256"
        }
      ],
      "name": "EarlyRedemptionFeeUpdated",
      "type": "event"
    },
    {
      "anonymous": false,
      "inputs": [
        {
          "indexed": false,
          "internalType": "uint64",
          "name": "version",
          "type": "uint64"
        }
      ],
      "name": "Initialized",
      "type": "event"
    },
    {
      "anonymous": false,
      "inputs": [
        {
          "indexed": true,
          "internalType": "Id",
          "name": "id",
          "type": "bytes32"
        },
        {
          "indexed": true,
          "internalType": "address",
          "name": "pa",
          "type": "address"
        },
        {
          "indexed": true,
          "internalType": "address",
          "name": "ra",
          "type": "address"
        },
        {
          "indexed": false,
          "internalType": "address",
          "name": "lv",
          "type": "address"
        }
      ],
      "name": "InitializedModuleCore",
      "type": "event"
    },
    {
      "anonymous": false,
      "inputs": [
        {
          "indexed": true,
          "internalType": "Id",
          "name": "Id",
          "type": "bytes32"
        },
        {
          "indexed": true,
          "internalType": "uint256",
          "name": "dsId",
          "type": "uint256"
        },
        {
          "indexed": true,
          "internalType": "uint256",
          "name": "expiry",
          "type": "uint256"
        },
        {
          "indexed": false,
          "internalType": "address",
          "name": "ds",
          "type": "address"
        },
        {
          "indexed": false,
          "internalType": "address",
          "name": "ct",
          "type": "address"
        },
        {
          "indexed": false,
          "internalType": "address",
          "name": "raCtUniPair",
          "type": "address"
        }
      ],
      "name": "Issued",
      "type": "event"
    },
    {
      "anonymous": false,
      "inputs": [
        {
          "indexed": true,
          "internalType": "Id",
          "name": "id",
          "type": "bytes32"
        },
        {
          "indexed": true,
          "internalType": "address",
          "name": "depositor",
          "type": "address"
        },
        {
          "indexed": false,
          "internalType": "uint256",
          "name": "amount",
          "type": "uint256"
        }
      ],
      "name": "LvDeposited",
      "type": "event"
    },
    {
      "anonymous": false,
      "inputs": [
        {
          "indexed": true,
          "internalType": "Id",
          "name": "Id",
          "type": "bytes32"
        },
        {
          "indexed": true,
          "internalType": "address",
          "name": "redeemer",
          "type": "address"
        },
        {
          "indexed": true,
          "internalType": "address",
          "name": "receiver",
          "type": "address"
        },
        {
          "indexed": false,
          "internalType": "uint256",
          "name": "amount",
          "type": "uint256"
        },
        {
          "indexed": false,
          "internalType": "uint256",
          "name": "fee",
          "type": "uint256"
        },
        {
          "indexed": false,
          "internalType": "uint256",
          "name": "feePrecentage",
          "type": "uint256"
        }
      ],
      "name": "LvRedeemEarly",
      "type": "event"
    },
    {
      "anonymous": false,
      "inputs": [
        {
          "indexed": true,
          "internalType": "address",
          "name": "previousOwner",
          "type": "address"
        },
        {
          "indexed": true,
          "internalType": "address",
          "name": "newOwner",
          "type": "address"
        }
      ],
      "name": "OwnershipTransferred",
      "type": "event"
    },
    {
      "anonymous": false,
      "inputs": [
        {
          "indexed": true,
          "internalType": "Id",
          "name": "Id",
          "type": "bytes32"
        },
        {
          "indexed": false,
          "internalType": "bool",
          "name": "isPSMDepositPaused",
          "type": "bool"
        },
        {
          "indexed": false,
          "internalType": "bool",
          "name": "isPSMWithdrawalPaused",
          "type": "bool"
        },
        {
          "indexed": false,
          "internalType": "bool",
          "name": "isLVDepositPaused",
          "type": "bool"
        },
        {
          "indexed": false,
          "internalType": "bool",
          "name": "isLVWithdrawalPaused",
          "type": "bool"
        }
      ],
      "name": "PoolsStatusUpdated",
      "type": "event"
    },
    {
      "anonymous": false,
      "inputs": [
        {
          "indexed": true,
          "internalType": "Id",
          "name": "Id",
          "type": "bytes32"
        },
        {
          "indexed": true,
          "internalType": "uint256",
          "name": "dsId",
          "type": "uint256"
        },
        {
          "indexed": true,
          "internalType": "address",
          "name": "depositor",
          "type": "address"
        },
        {
          "indexed": false,
          "internalType": "uint256",
          "name": "amount",
          "type": "uint256"
        },
        {
          "indexed": false,
          "internalType": "uint256",
          "name": "received",
          "type": "uint256"
        },
        {
          "indexed": false,
          "internalType": "uint256",
          "name": "exchangeRate",
          "type": "uint256"
        }
      ],
      "name": "PsmDeposited",
      "type": "event"
    },
    {
      "anonymous": false,
      "inputs": [
        {
          "indexed": true,
          "internalType": "Id",
          "name": "Id",
          "type": "bytes32"
        },
        {
          "indexed": true,
          "internalType": "uint256",
          "name": "repurchaseFeeRate",
          "type": "uint256"
        }
      ],
      "name": "RepurchaseFeeRateUpdated",
      "type": "event"
    },
    {
      "anonymous": false,
      "inputs": [
        {
          "indexed": true,
          "internalType": "Id",
          "name": "id",
          "type": "bytes32"
        },
        {
          "indexed": true,
          "internalType": "address",
          "name": "buyer",
          "type": "address"
        },
        {
          "indexed": true,
          "internalType": "uint256",
          "name": "dsId",
          "type": "uint256"
        },
        {
          "indexed": false,
          "internalType": "uint256",
          "name": "raUsed",
          "type": "uint256"
        },
        {
          "indexed": false,
          "internalType": "uint256",
          "name": "received",
          "type": "uint256"
        },
        {
          "indexed": false,
          "internalType": "uint256",
          "name": "feePrecentage",
          "type": "uint256"
        },
        {
          "indexed": false,
          "internalType": "uint256",
          "name": "fee",
          "type": "uint256"
        },
        {
          "indexed": false,
          "internalType": "uint256",
          "name": "exchangeRates",
          "type": "uint256"
        }
      ],
      "name": "Repurchased",
      "type": "event"
    },
    {
      "anonymous": false,
      "inputs": [
        {
          "indexed": true,
          "internalType": "Id",
          "name": "Id",
          "type": "bytes32"
        },
        {
          "indexed": true,
          "internalType": "uint256",
          "name": "currentDsId",
          "type": "uint256"
        },
        {
          "indexed": true,
          "internalType": "address",
          "name": "owner",
          "type": "address"
        },
        {
          "indexed": false,
          "internalType": "uint256",
          "name": "prevDsId",
          "type": "uint256"
        },
        {
          "indexed": false,
          "internalType": "uint256",
          "name": "amountCtRolledOver",
          "type": "uint256"
        },
        {
          "indexed": false,
          "internalType": "uint256",
          "name": "dsReceived",
          "type": "uint256"
        },
        {
          "indexed": false,
          "internalType": "uint256",
          "name": "ctReceived",
          "type": "uint256"
        },
        {
          "indexed": false,
          "internalType": "uint256",
          "name": "paReceived",
          "type": "uint256"
        },
        {
          "indexed": false,
          "internalType": "uint256",
          "name": "exchangeRate",
          "type": "uint256"
        }
      ],
      "name": "RolledOver",
      "type": "event"
    },
    {
      "anonymous": false,
      "inputs": [
        {
          "indexed": true,
          "internalType": "Id",
          "name": "Id",
          "type": "bytes32"
        },
        {
          "indexed": true,
          "internalType": "uint256",
          "name": "dsId",
          "type": "uint256"
        },
        {
          "indexed": true,
          "internalType": "address",
          "name": "owner",
          "type": "address"
        },
        {
          "indexed": false,
          "internalType": "uint256",
          "name": "amount",
          "type": "uint256"
        },
        {
          "indexed": false,
          "internalType": "uint256",
          "name": "profit",
          "type": "uint256"
        },
        {
          "indexed": false,
          "internalType": "uint256",
          "name": "remainingDs",
          "type": "uint256"
        }
      ],
      "name": "RolloverProfitClaimed",
      "type": "event"
    },
    {
      "anonymous": false,
      "inputs": [
        {
          "indexed": true,
          "internalType": "address",
          "name": "implementation",
          "type": "address"
        }
      ],
      "name": "Upgraded",
      "type": "event"
    },
    {
      "inputs": [],
      "name": "UPGRADE_INTERFACE_VERSION",
      "outputs": [
        {
          "internalType": "string",
          "name": "",
          "type": "string"
        }
      ],
      "stateMutability": "view",
      "type": "function"
    },
    {
      "inputs": [
        {
          "internalType": "Id",
          "name": "id",
          "type": "bytes32"
        }
      ],
      "name": "availableForRepurchase",
      "outputs": [
        {
          "internalType": "uint256",
          "name": "pa",
          "type": "uint256"
        },
        {
          "internalType": "uint256",
          "name": "ds",
          "type": "uint256"
        },
        {
          "internalType": "uint256",
          "name": "dsId",
          "type": "uint256"
        }
      ],
      "stateMutability": "view",
      "type": "function"
    },
    {
      "inputs": [],
      "name": "baseRedemptionFee",
      "outputs": [
        {
          "internalType": "uint256",
          "name": "",
          "type": "uint256"
        }
      ],
      "stateMutability": "view",
      "type": "function"
    },
    {
      "inputs": [
        {
          "internalType": "Id",
          "name": "id",
          "type": "bytes32"
        },
        {
          "internalType": "uint256",
          "name": "dsId",
          "type": "uint256"
        },
        {
          "internalType": "uint256",
          "name": "amount",
          "type": "uint256"
        }
      ],
      "name": "claimAutoSellProfit",
      "outputs": [
        {
          "internalType": "uint256",
          "name": "profit",
          "type": "uint256"
        },
        {
          "internalType": "uint256",
          "name": "dsReceived",
          "type": "uint256"
        }
      ],
      "stateMutability": "nonpayable",
      "type": "function"
    },
    {
      "inputs": [
        {
          "internalType": "Id",
          "name": "id",
          "type": "bytes32"
        },
        {
          "internalType": "uint256",
          "name": "amount",
          "type": "uint256"
        }
      ],
      "name": "depositLv",
      "outputs": [
        {
          "internalType": "uint256",
          "name": "received",
          "type": "uint256"
        }
      ],
      "stateMutability": "nonpayable",
      "type": "function"
    },
    {
      "inputs": [
        {
          "internalType": "Id",
          "name": "id",
          "type": "bytes32"
        },
        {
          "internalType": "uint256",
          "name": "amount",
          "type": "uint256"
        }
      ],
      "name": "depositPsm",
      "outputs": [
        {
          "internalType": "uint256",
          "name": "received",
          "type": "uint256"
        },
        {
          "internalType": "uint256",
          "name": "_exchangeRate",
          "type": "uint256"
        }
      ],
      "stateMutability": "nonpayable",
      "type": "function"
    },
    {
      "inputs": [
        {
          "internalType": "Id",
          "name": "id",
          "type": "bytes32"
        }
      ],
      "name": "earlyRedemptionFee",
      "outputs": [
        {
          "internalType": "uint256",
          "name": "",
          "type": "uint256"
        }
      ],
      "stateMutability": "view",
      "type": "function"
    },
    {
      "inputs": [
        {
          "internalType": "Id",
          "name": "id",
          "type": "bytes32"
        }
      ],
      "name": "exchangeRate",
      "outputs": [
        {
          "internalType": "uint256",
          "name": "rates",
          "type": "uint256"
        }
      ],
      "stateMutability": "view",
      "type": "function"
    },
    {
      "inputs": [],
      "name": "factory",
      "outputs": [
        {
          "internalType": "address",
          "name": "",
          "type": "address"
        }
      ],
      "stateMutability": "view",
      "type": "function"
    },
    {
      "inputs": [
        {
          "internalType": "address",
          "name": "pa",
          "type": "address"
        },
        {
          "internalType": "address",
          "name": "ra",
          "type": "address"
        }
      ],
      "name": "getId",
      "outputs": [
        {
          "internalType": "Id",
          "name": "",
          "type": "bytes32"
        }
      ],
      "stateMutability": "pure",
      "type": "function"
    },
    {
      "inputs": [
        {
          "internalType": "address",
          "name": "_swapAssetFactory",
          "type": "address"
        },
        {
          "internalType": "address",
          "name": "_ammFactory",
          "type": "address"
        },
        {
          "internalType": "address",
          "name": "_flashSwapRouter",
          "type": "address"
        },
        {
          "internalType": "address",
          "name": "_ammRouter",
          "type": "address"
        },
        {
          "internalType": "address",
          "name": "_config",
          "type": "address"
        },
        {
          "internalType": "uint256",
          "name": "_psmBaseRedemptionFeePrecentage",
          "type": "uint256"
        }
      ],
      "name": "initialize",
      "outputs": [],
      "stateMutability": "nonpayable",
      "type": "function"
    },
    {
      "inputs": [
        {
          "internalType": "address",
          "name": "pa",
          "type": "address"
        },
        {
          "internalType": "address",
          "name": "ra",
          "type": "address"
        },
        {
          "internalType": "uint256",
          "name": "lvFee",
          "type": "uint256"
        },
        {
          "internalType": "uint256",
          "name": "initialDsPrice",
          "type": "uint256"
        }
      ],
      "name": "initializeModuleCore",
      "outputs": [],
      "stateMutability": "nonpayable",
      "type": "function"
    },
    {
      "inputs": [
        {
          "internalType": "Id",
          "name": "id",
          "type": "bytes32"
        },
        {
          "internalType": "uint256",
          "name": "expiry",
          "type": "uint256"
        },
        {
          "internalType": "uint256",
          "name": "exchangeRates",
          "type": "uint256"
        },
        {
          "internalType": "uint256",
          "name": "repurchaseFeePrecentage",
          "type": "uint256"
        },
        {
          "internalType": "uint256",
          "name": "decayDiscountRateInDays",
          "type": "uint256"
        },
        {
          "internalType": "uint256",
          "name": "rolloverPeriodInblocks",
          "type": "uint256"
        }
      ],
      "name": "issueNewDs",
      "outputs": [],
      "stateMutability": "nonpayable",
      "type": "function"
    },
    {
      "inputs": [
        {
          "internalType": "Id",
          "name": "id",
          "type": "bytes32"
        }
      ],
      "name": "lastDsId",
      "outputs": [
        {
          "internalType": "uint256",
          "name": "dsId",
          "type": "uint256"
        }
      ],
      "stateMutability": "view",
      "type": "function"
    },
    {
      "inputs": [
        {
          "internalType": "Id",
          "name": "id",
          "type": "bytes32"
        },
        {
          "internalType": "uint256",
          "name": "amount",
          "type": "uint256"
        }
      ],
      "name": "lvAcceptRolloverProfit",
      "outputs": [],
      "stateMutability": "nonpayable",
      "type": "function"
    },
    {
      "inputs": [],
      "name": "owner",
      "outputs": [
        {
          "internalType": "address",
          "name": "",
          "type": "address"
        }
      ],
      "stateMutability": "view",
      "type": "function"
    },
    {
      "inputs": [
        {
          "internalType": "Id",
          "name": "id",
          "type": "bytes32"
        },
        {
          "internalType": "uint256",
          "name": "amount",
          "type": "uint256"
        }
      ],
      "name": "previewDepositPsm",
      "outputs": [
        {
          "internalType": "uint256",
          "name": "ctReceived",
          "type": "uint256"
        },
        {
          "internalType": "uint256",
          "name": "dsReceived",
          "type": "uint256"
        },
        {
          "internalType": "uint256",
          "name": "dsId",
          "type": "uint256"
        }
      ],
      "stateMutability": "view",
      "type": "function"
    },
    {
      "inputs": [
        {
          "internalType": "Id",
          "name": "id",
          "type": "bytes32"
        },
        {
          "internalType": "uint256",
          "name": "amount",
          "type": "uint256"
        }
      ],
      "name": "previewLvDeposit",
      "outputs": [
        {
          "internalType": "uint256",
          "name": "lv",
          "type": "uint256"
        }
      ],
      "stateMutability": "view",
      "type": "function"
    },
    {
      "inputs": [
        {
          "internalType": "Id",
          "name": "id",
          "type": "bytes32"
        },
        {
          "internalType": "uint256",
          "name": "amount",
          "type": "uint256"
        }
      ],
      "name": "previewRedeemEarlyLv",
      "outputs": [
        {
          "internalType": "uint256",
          "name": "received",
          "type": "uint256"
        },
        {
          "internalType": "uint256",
          "name": "fee",
          "type": "uint256"
        },
        {
          "internalType": "uint256",
          "name": "feePrecentage",
          "type": "uint256"
        }
      ],
      "stateMutability": "view",
      "type": "function"
    },
    {
      "inputs": [
        {
          "internalType": "Id",
          "name": "id",
          "type": "bytes32"
        },
        {
          "internalType": "uint256",
          "name": "amount",
          "type": "uint256"
        }
      ],
      "name": "previewRedeemRaWithCtDs",
      "outputs": [
        {
          "internalType": "uint256",
          "name": "ra",
          "type": "uint256"
        },
        {
          "internalType": "uint256",
          "name": "rates",
          "type": "uint256"
        }
      ],
      "stateMutability": "view",
      "type": "function"
    },
    {
      "inputs": [
        {
          "internalType": "Id",
          "name": "id",
          "type": "bytes32"
        },
        {
          "internalType": "uint256",
          "name": "dsId",
          "type": "uint256"
        },
        {
          "internalType": "uint256",
          "name": "amount",
          "type": "uint256"
        }
      ],
      "name": "previewRedeemRaWithDs",
      "outputs": [
        {
          "internalType": "uint256",
          "name": "assets",
          "type": "uint256"
        }
      ],
      "stateMutability": "view",
      "type": "function"
    },
    {
      "inputs": [
        {
          "internalType": "Id",
          "name": "id",
          "type": "bytes32"
        },
        {
          "internalType": "uint256",
          "name": "dsId",
          "type": "uint256"
        },
        {
          "internalType": "uint256",
          "name": "amount",
          "type": "uint256"
        }
      ],
      "name": "previewRedeemWithCt",
      "outputs": [
        {
          "internalType": "uint256",
          "name": "paReceived",
          "type": "uint256"
        },
        {
          "internalType": "uint256",
          "name": "raReceived",
          "type": "uint256"
        }
      ],
      "stateMutability": "view",
      "type": "function"
    },
    {
      "inputs": [
        {
          "internalType": "Id",
          "name": "id",
          "type": "bytes32"
        },
        {
          "internalType": "uint256",
          "name": "amount",
          "type": "uint256"
        }
      ],
      "name": "previewRepurchase",
      "outputs": [
        {
          "internalType": "uint256",
          "name": "dsId",
          "type": "uint256"
        },
        {
          "internalType": "uint256",
          "name": "received",
          "type": "uint256"
        },
        {
          "internalType": "uint256",
          "name": "feePrecentage",
          "type": "uint256"
        },
        {
          "internalType": "uint256",
          "name": "fee",
          "type": "uint256"
        },
        {
          "internalType": "uint256",
          "name": "exchangeRates",
          "type": "uint256"
        }
      ],
      "stateMutability": "view",
      "type": "function"
    },
    {
      "inputs": [
        {
          "internalType": "Id",
          "name": "id",
          "type": "bytes32"
        },
        {
          "internalType": "uint256",
          "name": "amount",
          "type": "uint256"
        }
      ],
      "name": "provideLiquidityWithFlashSwapFee",
      "outputs": [],
      "stateMutability": "nonpayable",
      "type": "function"
    },
    {
      "inputs": [],
      "name": "proxiableUUID",
      "outputs": [
        {
          "internalType": "bytes32",
          "name": "",
          "type": "bytes32"
        }
      ],
      "stateMutability": "view",
      "type": "function"
    },
    {
      "inputs": [
        {
          "internalType": "Id",
          "name": "id",
          "type": "bytes32"
        },
        {
          "internalType": "uint256",
          "name": "profit",
          "type": "uint256"
        }
      ],
      "name": "psmAcceptFlashSwapProfit",
      "outputs": [],
      "stateMutability": "nonpayable",
      "type": "function"
    },
    {
      "inputs": [
        {
          "internalType": "Id",
          "name": "id",
          "type": "bytes32"
        },
        {
          "internalType": "address",
          "name": "receiver",
          "type": "address"
        },
        {
          "internalType": "uint256",
          "name": "amount",
          "type": "uint256"
        },
        {
          "internalType": "bytes",
          "name": "rawLvPermitSig",
          "type": "bytes"
        },
        {
          "internalType": "uint256",
          "name": "deadline",
          "type": "uint256"
        },
        {
          "internalType": "uint256",
          "name": "amountOutMin",
          "type": "uint256"
        }
      ],
      "name": "redeemEarlyLv",
      "outputs": [
        {
          "internalType": "uint256",
          "name": "received",
          "type": "uint256"
        },
        {
          "internalType": "uint256",
          "name": "fee",
          "type": "uint256"
        },
        {
          "internalType": "uint256",
          "name": "feePrecentage",
          "type": "uint256"
        }
      ],
      "stateMutability": "nonpayable",
      "type": "function"
    },
    {
      "inputs": [
        {
          "internalType": "Id",
          "name": "id",
          "type": "bytes32"
        },
        {
          "internalType": "address",
          "name": "receiver",
          "type": "address"
        },
        {
          "internalType": "uint256",
          "name": "amount",
          "type": "uint256"
        },
        {
          "internalType": "uint256",
          "name": "amountOutMin",
          "type": "uint256"
        }
      ],
      "name": "redeemEarlyLv",
      "outputs": [
        {
          "internalType": "uint256",
          "name": "received",
          "type": "uint256"
        },
        {
          "internalType": "uint256",
          "name": "fee",
          "type": "uint256"
        },
        {
          "internalType": "uint256",
          "name": "feePrecentage",
          "type": "uint256"
        }
      ],
      "stateMutability": "nonpayable",
      "type": "function"
    },
    {
      "inputs": [
        {
          "internalType": "Id",
          "name": "id",
          "type": "bytes32"
        },
        {
          "internalType": "uint256",
          "name": "amount",
          "type": "uint256"
        }
      ],
      "name": "redeemRaWithCtDs",
      "outputs": [
        {
          "internalType": "uint256",
          "name": "ra",
          "type": "uint256"
        },
        {
          "internalType": "uint256",
          "name": "dsId",
          "type": "uint256"
        },
        {
          "internalType": "uint256",
          "name": "rates",
          "type": "uint256"
        }
      ],
      "stateMutability": "nonpayable",
      "type": "function"
    },
    {
      "inputs": [
        {
          "internalType": "Id",
          "name": "id",
          "type": "bytes32"
        },
        {
          "internalType": "uint256",
          "name": "amount",
          "type": "uint256"
        },
        {
          "internalType": "bytes",
          "name": "rawDsPermitSig",
          "type": "bytes"
        },
        {
          "internalType": "uint256",
          "name": "dsDeadline",
          "type": "uint256"
        },
        {
          "internalType": "bytes",
          "name": "rawCtPermitSig",
          "type": "bytes"
        },
        {
          "internalType": "uint256",
          "name": "ctDeadline",
          "type": "uint256"
        }
      ],
      "name": "redeemRaWithCtDs",
      "outputs": [
        {
          "internalType": "uint256",
          "name": "ra",
          "type": "uint256"
        },
        {
          "internalType": "uint256",
          "name": "dsId",
          "type": "uint256"
        },
        {
          "internalType": "uint256",
          "name": "rates",
          "type": "uint256"
        }
      ],
      "stateMutability": "nonpayable",
      "type": "function"
    },
    {
      "inputs": [
        {
          "internalType": "Id",
          "name": "id",
          "type": "bytes32"
        },
        {
          "internalType": "uint256",
          "name": "dsId",
          "type": "uint256"
        },
        {
          "internalType": "uint256",
          "name": "amount",
          "type": "uint256"
        }
      ],
      "name": "redeemRaWithDs",
      "outputs": [
        {
          "internalType": "uint256",
          "name": "received",
          "type": "uint256"
        },
        {
          "internalType": "uint256",
          "name": "_exchangeRate",
          "type": "uint256"
        },
        {
          "internalType": "uint256",
          "name": "fee",
          "type": "uint256"
        }
      ],
      "stateMutability": "nonpayable",
      "type": "function"
    },
    {
      "inputs": [
        {
          "internalType": "Id",
          "name": "id",
          "type": "bytes32"
        },
        {
          "internalType": "uint256",
          "name": "dsId",
          "type": "uint256"
        },
        {
          "internalType": "uint256",
          "name": "amount",
          "type": "uint256"
        },
        {
          "internalType": "bytes",
          "name": "rawDsPermitSig",
          "type": "bytes"
        },
        {
          "internalType": "uint256",
          "name": "deadline",
          "type": "uint256"
        }
      ],
      "name": "redeemRaWithDs",
      "outputs": [
        {
          "internalType": "uint256",
          "name": "received",
          "type": "uint256"
        },
        {
          "internalType": "uint256",
          "name": "_exchangeRate",
          "type": "uint256"
        },
        {
          "internalType": "uint256",
          "name": "fee",
          "type": "uint256"
        }
      ],
      "stateMutability": "nonpayable",
      "type": "function"
    },
    {
      "inputs": [
        {
          "internalType": "Id",
          "name": "id",
          "type": "bytes32"
        },
        {
          "internalType": "uint256",
          "name": "dsId",
          "type": "uint256"
        },
        {
          "internalType": "uint256",
          "name": "amount",
          "type": "uint256"
        }
      ],
      "name": "redeemWithCT",
      "outputs": [
        {
          "internalType": "uint256",
          "name": "accruedPa",
          "type": "uint256"
        },
        {
          "internalType": "uint256",
          "name": "accruedRa",
          "type": "uint256"
        }
      ],
      "stateMutability": "nonpayable",
      "type": "function"
    },
    {
      "inputs": [
        {
          "internalType": "Id",
          "name": "id",
          "type": "bytes32"
        },
        {
          "internalType": "uint256",
          "name": "dsId",
          "type": "uint256"
        },
        {
          "internalType": "uint256",
          "name": "amount",
          "type": "uint256"
        },
        {
          "internalType": "bytes",
          "name": "rawCtPermitSig",
          "type": "bytes"
        },
        {
          "internalType": "uint256",
          "name": "deadline",
          "type": "uint256"
        }
      ],
      "name": "redeemWithCT",
      "outputs": [
        {
          "internalType": "uint256",
          "name": "accruedPa",
          "type": "uint256"
        },
        {
          "internalType": "uint256",
          "name": "accruedRa",
          "type": "uint256"
        }
      ],
      "stateMutability": "nonpayable",
      "type": "function"
    },
    {
      "inputs": [],
      "name": "renounceOwnership",
      "outputs": [],
      "stateMutability": "nonpayable",
      "type": "function"
    },
    {
      "inputs": [
        {
          "internalType": "Id",
          "name": "id",
          "type": "bytes32"
        },
        {
          "internalType": "uint256",
          "name": "amount",
          "type": "uint256"
        }
      ],
      "name": "repurchase",
      "outputs": [
        {
          "internalType": "uint256",
          "name": "dsId",
          "type": "uint256"
        },
        {
          "internalType": "uint256",
          "name": "received",
          "type": "uint256"
        },
        {
          "internalType": "uint256",
          "name": "feePrecentage",
          "type": "uint256"
        },
        {
          "internalType": "uint256",
          "name": "fee",
          "type": "uint256"
        },
        {
          "internalType": "uint256",
          "name": "exchangeRates",
          "type": "uint256"
        }
      ],
      "stateMutability": "nonpayable",
      "type": "function"
    },
    {
      "inputs": [
        {
          "internalType": "Id",
          "name": "id",
          "type": "bytes32"
        }
      ],
      "name": "repurchaseFee",
      "outputs": [
        {
          "internalType": "uint256",
          "name": "",
          "type": "uint256"
        }
      ],
      "stateMutability": "view",
      "type": "function"
    },
    {
      "inputs": [
        {
          "internalType": "Id",
          "name": "id",
          "type": "bytes32"
        }
      ],
      "name": "repurchaseRates",
      "outputs": [
        {
          "internalType": "uint256",
          "name": "rates",
          "type": "uint256"
        }
      ],
      "stateMutability": "view",
      "type": "function"
    },
    {
      "inputs": [
        {
          "internalType": "Id",
          "name": "id",
          "type": "bytes32"
        },
        {
          "internalType": "address",
          "name": "owner",
          "type": "address"
        },
        {
          "internalType": "uint256",
          "name": "amount",
          "type": "uint256"
        },
        {
          "internalType": "uint256",
          "name": "dsId",
          "type": "uint256"
        }
      ],
      "name": "rolloverCt",
      "outputs": [
        {
          "internalType": "uint256",
          "name": "ctReceived",
          "type": "uint256"
        },
        {
          "internalType": "uint256",
          "name": "dsReceived",
          "type": "uint256"
        },
        {
          "internalType": "uint256",
          "name": "_exchangeRate",
          "type": "uint256"
        },
        {
          "internalType": "uint256",
          "name": "paReceived",
          "type": "uint256"
        }
      ],
      "stateMutability": "nonpayable",
      "type": "function"
    },
    {
      "inputs": [
        {
          "internalType": "Id",
          "name": "id",
          "type": "bytes32"
        },
        {
          "internalType": "address",
          "name": "owner",
          "type": "address"
        },
        {
          "internalType": "uint256",
          "name": "amount",
          "type": "uint256"
        },
        {
          "internalType": "uint256",
          "name": "dsId",
          "type": "uint256"
        },
        {
          "internalType": "bytes",
          "name": "rawCtPermitSig",
          "type": "bytes"
        },
        {
          "internalType": "uint256",
          "name": "ctDeadline",
          "type": "uint256"
        }
      ],
      "name": "rolloverCt",
      "outputs": [
        {
          "internalType": "uint256",
          "name": "ctReceived",
          "type": "uint256"
        },
        {
          "internalType": "uint256",
          "name": "dsReceived",
          "type": "uint256"
        },
        {
          "internalType": "uint256",
          "name": "_exchangeRate",
          "type": "uint256"
        },
        {
          "internalType": "uint256",
          "name": "paReceived",
          "type": "uint256"
        }
      ],
      "stateMutability": "nonpayable",
      "type": "function"
    },
    {
      "inputs": [
        {
          "internalType": "Id",
          "name": "id",
          "type": "bytes32"
        },
        {
          "internalType": "uint256",
          "name": "dsId",
          "type": "uint256"
        }
      ],
      "name": "rolloverProfitRemaining",
      "outputs": [
        {
          "internalType": "uint256",
          "name": "",
          "type": "uint256"
        }
      ],
      "stateMutability": "view",
      "type": "function"
    },
    {
      "inputs": [
        {
          "internalType": "Id",
          "name": "id",
          "type": "bytes32"
        },
        {
          "internalType": "uint256",
          "name": "dsId",
          "type": "uint256"
        }
      ],
      "name": "swapAsset",
      "outputs": [
        {
          "internalType": "address",
          "name": "ct",
          "type": "address"
        },
        {
          "internalType": "address",
          "name": "ds",
          "type": "address"
        }
      ],
      "stateMutability": "view",
      "type": "function"
    },
    {
      "inputs": [
        {
          "internalType": "address",
          "name": "newOwner",
          "type": "address"
        }
      ],
      "name": "transferOwnership",
      "outputs": [],
      "stateMutability": "nonpayable",
      "type": "function"
    },
    {
      "inputs": [
        {
          "internalType": "Id",
          "name": "id",
          "type": "bytes32"
        }
      ],
      "name": "underlyingAsset",
      "outputs": [
        {
          "internalType": "address",
          "name": "ra",
          "type": "address"
        },
        {
          "internalType": "address",
          "name": "pa",
          "type": "address"
        }
      ],
      "stateMutability": "view",
      "type": "function"
    },
    {
      "inputs": [
        {
          "internalType": "Id",
          "name": "id",
          "type": "bytes32"
        },
        {
          "internalType": "uint256",
          "name": "newEarlyRedemptionFeeRate",
          "type": "uint256"
        }
      ],
      "name": "updateEarlyRedemptionFeeRate",
      "outputs": [],
      "stateMutability": "nonpayable",
      "type": "function"
    },
    {
      "inputs": [
        {
          "internalType": "Id",
          "name": "id",
          "type": "bytes32"
        },
        {
          "internalType": "bool",
          "name": "isPSMDepositPaused",
          "type": "bool"
        },
        {
          "internalType": "bool",
          "name": "isPSMWithdrawalPaused",
          "type": "bool"
        },
        {
          "internalType": "bool",
          "name": "isLVDepositPaused",
          "type": "bool"
        },
        {
          "internalType": "bool",
          "name": "isLVWithdrawalPaused",
          "type": "bool"
        }
      ],
      "name": "updatePoolsStatus",
      "outputs": [],
      "stateMutability": "nonpayable",
      "type": "function"
    },
    {
      "inputs": [
        {
          "internalType": "Id",
          "name": "id",
          "type": "bytes32"
        },
        {
          "internalType": "address",
          "name": "user",
          "type": "address"
        },
        {
          "internalType": "bool",
          "name": "status",
          "type": "bool"
        }
      ],
      "name": "updatePsmAutoSellStatus",
      "outputs": [],
      "stateMutability": "nonpayable",
      "type": "function"
    },
    {
      "inputs": [
        {
          "internalType": "uint256",
          "name": "newPsmBaseRedemptionFeePrecentage",
          "type": "uint256"
        }
      ],
      "name": "updatePsmBaseRedemptionFeePrecentage",
      "outputs": [],
      "stateMutability": "nonpayable",
      "type": "function"
    },
    {
      "inputs": [
        {
          "internalType": "Id",
          "name": "id",
          "type": "bytes32"
        },
        {
          "internalType": "uint256",
          "name": "newRepurchaseFeePrecentage",
          "type": "uint256"
        }
      ],
      "name": "updateRepurchaseFeeRate",
      "outputs": [],
      "stateMutability": "nonpayable",
      "type": "function"
    },
    {
      "inputs": [
        {
          "internalType": "address",
          "name": "newImplementation",
          "type": "address"
        },
        {
          "internalType": "bytes",
          "name": "data",
          "type": "bytes"
        }
      ],
      "name": "upgradeToAndCall",
      "outputs": [],
      "stateMutability": "payable",
      "type": "function"
    },
    {
      "inputs": [
        {
          "internalType": "Id",
          "name": "id",
          "type": "bytes32"
        }
      ],
      "name": "valueLocked",
      "outputs": [
        {
          "internalType": "uint256",
          "name": "",
          "type": "uint256"
        }
      ],
      "stateMutability": "view",
      "type": "function"
    },
    {
      "inputs": [
        {
          "internalType": "Id",
          "name": "id",
          "type": "bytes32"
        }
      ],
      "name": "vaultLp",
      "outputs": [
        {
          "internalType": "uint256",
          "name": "",
          "type": "uint256"
        }
      ],
      "stateMutability": "view",
      "type": "function"
    }
  ],
  "bytecode": "0x60a060405230608052348015610013575f80fd5b50608051614d5961003a5f395f81816138be015281816138e70152613a2b0152614d595ff3fe6080604052600436106102f3575f3560e01c80638688099611610189578063c5094611116100d8578063ed577aa811610092578063f72681851161006d578063f726818514610a1f578063fb4ea17014610a3e578063fd69a39114610a5d578063ff62d3fb14610a8b575f80fd5b8063ed577aa8146109e1578063ef97428e1461054f578063f2fde38b14610a00575f80fd5b8063c5094611146108ff578063cc0ff1b21461091e578063d71166e81461093d578063d9c318861461095c578063ddd8bb2c1461097b578063df9a30071461099a575f80fd5b8063984f9dcb11610143578063ad3cb1cc1161011e578063ad3cb1cc14610867578063b2810ef5146108a4578063b431169f146108c3578063c45a0155146108e2575f80fd5b8063984f9dcb146107e6578063a208bc0a14610829578063ab50b4c114610848575f80fd5b806386880996146106cf57806389344fff146106ee5780638da5cb5b1461070d5780638e0c8df21461075d57806395b6ef0c146107b357806396caeb85146107d2575f80fd5b8063457532df116102455780635d5ca2d9116101ff5780636c1167c0116101da5780636c1167c01461064f578063715018a61461066e57806377f57a4f146106825780637d6571dd146106b0575f80fd5b80635d5ca2d9146105f25780636a50de33146106115780636aa8655414610630575f80fd5b8063457532df1461054f5780634f1ef2861461056e5780634f928dc11461058157806352d1902d146105a057806357c15042146105b45780635b239c2c146105d3575f80fd5b80633407b0a3116102b05780633af8d4e41161028b5780633af8d4e41461045f5780633dab40771461047e5780633e5efa3c146104f15780634404f23714610510575f80fd5b80633407b0a3146103f657806336ef80db1461042157806339c79d6f14610440575f80fd5b806302fe2c27146102f757806307fd3dc11461033057806308b9c1461461034f5780630b572bf4146103895780630d00cd66146103a85780630f57e848146103c9575b5f80fd5b348015610302575f80fd5b50610316610311366004614362565b610aaa565b604080519283526020830191909152015b60405180910390f35b34801561033b575f80fd5b5061031661034a366004614382565b610c76565b34801561035a575f80fd5b5061036e610369366004614362565b610d89565b60408051938452602084019290925290820152606001610327565b348015610394575f80fd5b506103166103a3366004614382565b610ef9565b3480156103b3575f80fd5b506103c76103c23660046143ab565b611102565b005b3480156103d4575f80fd5b506103e86103e33660046143ab565b61115b565b604051908152602001610327565b348015610401575f80fd5b506103e86104103660046143ab565b5f9081526020819052604090205490565b34801561042c575f80fd5b506103e861043b3660046143d6565b6111e2565b34801561044b575f80fd5b506103c761045a366004614362565b61122e565b34801561046a575f80fd5b50610316610479366004614382565b6112fe565b348015610489575f80fd5b506104d1610498366004614362565b5f91825260208281526040808420928452600390920190529020600181015490546001600160a01b039182169261010090910490911690565b604080516001600160a01b03938416815292909116602083015201610327565b3480156104fc575f80fd5b5061036e61050b3660046144aa565b611474565b34801561051b575f80fd5b5061052f61052a36600461452d565b6115d9565b604080519485526020850193909352918301526060820152608001610327565b34801561055a575f80fd5b506103c7610569366004614362565b611735565b6103c761057c366004614567565b6117f7565b34801561058c575f80fd5b5061036e61059b366004614382565b611816565b3480156105ab575f80fd5b506103e8611ad4565b3480156105bf575f80fd5b506103c76105ce366004614362565b611aef565b3480156105de575f80fd5b5061036e6105ed3660046145b4565b611b67565b3480156105fd575f80fd5b5061036e61060c366004614362565b611e19565b34801561061c575f80fd5b5061036e61062b366004614611565b611f15565b34801561063b575f80fd5b506103c761064a366004614362565b612097565b34801561065a575f80fd5b506103166106693660046145b4565b61211b565b348015610679575f80fd5b506103c761231d565b34801561068d575f80fd5b506103e861069c3660046143ab565b5f9081526020819052604090206016015490565b3480156106bb575f80fd5b506103c76106ca366004614681565b612330565b3480156106da575f80fd5b5061036e6106e93660046143ab565b6125ed565b3480156106f9575f80fd5b506103c76107083660046146cd565b61267e565b348015610718575f80fd5b507f9016d09d72d40fdae2fd8ceac6b6234c7706214fd39c1cd1e609a0528c199300546001600160a01b03165b6040516001600160a01b039091168152602001610327565b348015610768575f80fd5b506104d16107773660046143ab565b5f9081526020818152604091829020825180840190935260018101546001600160a01b0390811680855260029092015416929091018290529091565b3480156107be575f80fd5b506103c76107cd366004614731565b61278d565b3480156107dd575f80fd5b506006546103e8565b3480156107f1575f80fd5b506103e8610800366004614362565b5f91825260208281526040808420928452600c9092018152818320338452600401905290205490565b348015610834575f80fd5b506103e86108433660046143ab565b612927565b348015610853575f80fd5b506103e8610862366004614382565b61296c565b348015610872575f80fd5b50610897604051806040016040528060058152602001640352e302e360dc1b81525081565b60405161032791906147f3565b3480156108af575f80fd5b506103e86108be366004614362565b612ae2565b3480156108ce575f80fd5b5061036e6108dd366004614362565b612c34565b3480156108ed575f80fd5b506001546001600160a01b0316610745565b34801561090a575f80fd5b506103e86109193660046143ab565b612da8565b348015610929575f80fd5b506103e86109383660046143ab565b612dec565b348015610948575f80fd5b5061052f610957366004614805565b612e31565b348015610967575f80fd5b506103c7610976366004614861565b612f8c565b348015610986575f80fd5b506103c76109953660046148a0565b613016565b3480156109a5575f80fd5b506109b96109b4366004614362565b6132e7565b604080519586526020860194909452928401919091526060830152608082015260a001610327565b3480156109ec575f80fd5b5061036e6109fb36600461452d565b61338a565b348015610a0b575f80fd5b506103c7610a1a3660046148ce565b613524565b348015610a2a575f80fd5b50610316610a39366004614362565b613566565b348015610a49575f80fd5b506103e8610a58366004614362565b613637565b348015610a68575f80fd5b506103e8610a773660046143ab565b5f9081526020819052604090206015015490565b348015610a96575f80fd5b506109b9610aa5366004614362565b613720565b5f828152602081905260408082209051632f33a49360e21b815260048101919091528190849073__$47663d7950ea063f6eb3e635c08c22f1f9$__9063bcce924c90602401602060405180830381865af4158015610b0a573d5f803e3d5ffd5b505050506040513d601f19601f82011682018060405250810190610b2e91906148e9565b610b4b576040516305bb301f60e51b815260040160405180910390fd5b5f858152602081905260409020600e0154859060ff1615610b7f57604051636d34a66760e01b815260040160405180910390fd5b5f8681526020819052604081209073__$47663d7950ea063f6eb3e635c08c22f1f9$__6363b60afb83336040516001600160e01b031960e085901b16815260048101929092526001600160a01b03166024820152604481018a9052606401606060405180830381865af4158015610bf8573d5f803e3d5ffd5b505050506040513d601f19601f82011682018060405250810190610c1c9190614904565b604080518b8152602081018490529081018290529198509650909150339082908a907f7d598df8555bc3b862930a873aab88f97531083472e26b53e679879dca7b24c19060600160405180910390a4505050509250929050565b5f838152602081905260408120819073__$47663d7950ea063f6eb3e635c08c22f1f9$__638cc5631f82610cb26003546001600160a01b031690565b336040516001600160e01b031960e086901b16815260048101939093526001600160a01b039182166024840152166044820152606481018890526084810187905260a4016040805180830381865af4158015610d10573d5f803e3d5ffd5b505050506040513d601f19601f82011682018060405250810190610d34919061492f565b604080518781526020810184905290810182905291945092503390869088907f48275667677099f1967c6479b5d3d3f63ae3c6c98f23dd5eec4c7d6554ab28859060600160405180910390a450935093915050565b5f80805f80516020614ce48339815191525c15610db95760405163a528ff4360e01b815260040160405180910390fd5b610dc161385f565b5f858152602081905260409020600e01548590610100900460ff1615610dfa576040516378e287e360e01b815260040160405180910390fd5b5f86815260208181526040808320815180840183528481528251938401835284845291516206ee8f60e81b8152909373__$47663d7950ea063f6eb3e635c08c22f1f9$__936306ee8f0093610e5a93879333938e93928290600401614951565b606060405180830381865af4158015610e75573d5f803e3d5ffd5b505050506040513d601f19601f82011682018060405250810190610e999190614904565b60408051848152602081018b905290810182905292975090955093503390859089907f5e639cd9080405443c0a7a5e722321527207147b4f189c36d757700d59c716379060600160405180910390a45050610ef2613872565b9250925092565b5f805f80516020614ce48339815191525c15610f285760405163a528ff4360e01b815260040160405180910390fd5b610f3061385f565b5f85815260208190526040908190209051632f33a49360e21b8152869173__$47663d7950ea063f6eb3e635c08c22f1f9$__9163bcce924c91610f799160040190815260200190565b602060405180830381865af4158015610f94573d5f803e3d5ffd5b505050506040513d601f19601f82011682018060405250810190610fb891906148e9565b610fd5576040516305bb301f60e51b815260040160405180910390fd5b5f868152602081905260409020600e01548690610100900460ff161561100e576040516378e287e360e01b815260040160405180910390fd5b5f87815260208181526040808320815192830182528383529051637691697760e11b8152909273__$47663d7950ea063f6eb3e635c08c22f1f9$__9263ed22d2ee9261106592869233928d928f92916004016149aa565b6040805180830381865af415801561107f573d5f803e3d5ffd5b505050506040513d601f19601f820116820180604052508101906110a3919061492f565b60408051898152602081018490529081018290529196509450339088908a907fc901c80d52ba5274697ecdce2dca541020aa66e35eef49e801708ae75bd36e2a9060600160405180910390a45050506110fa613872565b935093915050565b6005546001600160a01b0316331461112d576040516354682c0160e01b815260040160405180910390fd5b674563918244f4000081111561115657604051632d8768f960e01b815260040160405180910390fd5b600655565b5f818152602081905260408082209051635bfb49bb60e11b81526004810182905273__$47663d7950ea063f6eb3e635c08c22f1f9$__9063b7f69376906024015b602060405180830381865af41580156111b7573d5f803e3d5ffd5b505050506040513d601f19601f820116820180604052508101906111db91906149ef565b9392505050565b5f6112256112208484604080518082019091525f808252602082015250604080518082019091526001600160a01b0392831681529116602082015290565b613884565b90505b92915050565b6005546001600160a01b03163314611259576040516354682c0160e01b815260040160405180910390fd5b5f8281526020819052604090819020905163955cab1760e01b8152600481018290526024810183905273__$47663d7950ea063f6eb3e635c08c22f1f9$__9063955cab17906044015f6040518083038186803b1580156112b7575f80fd5b505af41580156112c9573d5f803e3d5ffd5b50506040518492508591507f7e4c87409e2100797a6e866ec4cff705518cfa70c9cdd81118405f6dbd40f59e905f90a3505050565b5f838152602081905260408082209051632f33a49360e21b815260048101919091528190859073__$47663d7950ea063f6eb3e635c08c22f1f9$__9063bcce924c90602401602060405180830381865af415801561135e573d5f803e3d5ffd5b505050506040513d601f19601f8201168201806040525081019061138291906148e9565b61139f576040516305bb301f60e51b815260040160405180910390fd5b5f868152602081905260409020600e01548690610100900460ff16156113d8576040516378e287e360e01b815260040160405180910390fd5b5f87815260208190526040908190209051631cc56d1360e21b815260048101829052602481018890526044810187905273__$47663d7950ea063f6eb3e635c08c22f1f9$__90637315b44c906064016040805180830381865af4158015611441573d5f803e3d5ffd5b505050506040513d601f19601f82011682018060405250810190611465919061492f565b90999098509650505050505050565b5f80805f80516020614ce48339815191525c156114a45760405163a528ff4360e01b815260040160405180910390fd5b6114ac61385f565b5f898152602081905260409020600e01548990610100900460ff16156114e5576040516378e287e360e01b815260040160405180910390fd5b5f8a815260208190526040902073__$47663d7950ea063f6eb3e635c08c22f1f9$__6306ee8f0082338d8d8d8d8d6040518863ffffffff1660e01b81526004016115359796959493929190614951565b606060405180830381865af4158015611550573d5f803e3d5ffd5b505050506040513d601f19601f820116820180604052508101906115749190614904565b60408051848152602081018f90529081018290529297509095509350339085908d907f5e639cd9080405443c0a7a5e722321527207147b4f189c36d757700d59c716379060600160405180910390a450506115cd613872565b96509650969350505050565b5f848152602081905260408120600e0154819081908190889060ff161561161357604051636d34a66760e01b815260040160405180910390fd5b5f898152602081905260409020606073__$47663d7950ea063f6eb3e635c08c22f1f9$__63034adbe7838c8c8c6116526003546001600160a01b031690565b875f6040518863ffffffff1660e01b81526004016116769796959493929190614a06565b608060405180830381865af4158015611691573d5f803e3d5ffd5b505050506040513d601f19601f820116820180604052508101906116b59190614a59565b92995090975095509350338254604080518b8152602081018d9052908101899052606081018a90526080810187905260a081018890526001600160a01b0392909216918d907fe5c9cd5ee6f39cc7d92c61fd3a581d28ca3f637739eed507c9f18f9580aea38e9060c00160405180910390a4505050945094509450949050565b6003546001600160a01b0316331461176057604051639b7b59f960e01b815260040160405180910390fd5b5f82815260208190526040902073__$3cc617d03a482caa4c26d9b94ae258b9f7$__63a25a4125828461179b6003546001600160a01b031690565b6004546001600160a01b03166040518563ffffffff1660e01b81526004016117c69493929190614a8c565b5f6040518083038186803b1580156117dc575f80fd5b505af41580156117ee573d5f803e3d5ffd5b50505050505050565b6117ff6138b3565b61180882613957565b611812828261395f565b5050565b5f80805f80516020614ce48339815191525c156118465760405163a528ff4360e01b815260040160405180910390fd5b61184e61385f565b5f86815260208190526040908190209051632f33a49360e21b8152879173__$47663d7950ea063f6eb3e635c08c22f1f9$__9163bcce924c916118979160040190815260200190565b602060405180830381865af41580156118b2573d5f803e3d5ffd5b505050506040513d601f19601f820116820180604052508101906118d691906148e9565b6118f3576040516305bb301f60e51b815260040160405180910390fd5b5f878152602081905260409020600e01548790610100900460ff161561192c576040516378e287e360e01b815260040160405180910390fd5b5f88815260208190526040902060065473__$47663d7950ea063f6eb3e635c08c22f1f9$__635626941683338b8d60405180602001604052805f8152505f886040518863ffffffff1660e01b815260040161198d9796959493929190614ab3565b606060405180830381865af41580156119a8573d5f803e3d5ffd5b505050506040513d601f19601f820116820180604052508101906119cc9190614904565b9198509650945073__$3cc617d03a482caa4c26d9b94ae258b9f7$__63a25a41258387611a016003546001600160a01b031690565b6004546001600160a01b03166040518563ffffffff1660e01b8152600401611a2c9493929190614a8c565b5f6040518083038186803b158015611a42575f80fd5b505af4158015611a54573d5f803e3d5ffd5b50505050611a5f3390565b604080518a8152602081018a905290810188905260608101839052608081018790526001600160a01b0391909116908a908c907f2820f0b06a0f8d06ac3feff1c2ff5c7754e24840d4b7f9fa9575943a211111849060a00160405180910390a450505050611acb613872565b93509350939050565b5f611add613a20565b505f80516020614d0483398151915290565b6003546001600160a01b03163314611b1a57604051639b7b59f960e01b815260040160405180910390fd5b5f82815260208190526040908190209051632c1eeeb960e11b8152600481018290526024810183905273__$47663d7950ea063f6eb3e635c08c22f1f9$__9063583ddd72906044016117c6565b5f80805f80516020614ce48339815191525c15611b975760405163a528ff4360e01b815260040160405180910390fd5b611b9f61385f565b5f88815260208190526040908190209051632f33a49360e21b8152899173__$47663d7950ea063f6eb3e635c08c22f1f9$__9163bcce924c91611be89160040190815260200190565b602060405180830381865af4158015611c03573d5f803e3d5ffd5b505050506040513d601f19601f82011682018060405250810190611c2791906148e9565b611c44576040516305bb301f60e51b815260040160405180910390fd5b5f898152602081905260409020600e01548990610100900460ff1615611c7d576040516378e287e360e01b815260040160405180910390fd5b5f8a815260208190526040902060065473__$47663d7950ea063f6eb3e635c08c22f1f9$__635626941683338d8f8e8e886040518863ffffffff1660e01b8152600401611cd09796959493929190614ab3565b606060405180830381865af4158015611ceb573d5f803e3d5ffd5b505050506040513d601f19601f82011682018060405250810190611d0f9190614904565b9198509650945073__$3cc617d03a482caa4c26d9b94ae258b9f7$__63a25a41258387611d446003546001600160a01b031690565b6004546001600160a01b03166040518563ffffffff1660e01b8152600401611d6f9493929190614a8c565b5f6040518083038186803b158015611d85575f80fd5b505af4158015611d97573d5f803e3d5ffd5b50505050611da23390565b604080518c8152602081018a905290810188905260608101839052608081018790526001600160a01b0391909116908c908e907f2820f0b06a0f8d06ac3feff1c2ff5c7754e24840d4b7f9fa9575943a211111849060a00160405180910390a450505050611e0e613872565b955095509592505050565b5f82815260208190526040812060170154819081908590610100900460ff1615611e56576040516303ef0fb160e51b815260040160405180910390fd5b5f86815260208190526040902073__$3cc617d03a482caa4c26d9b94ae258b9f7$__636b895bb88288611e916003546001600160a01b031690565b6040516001600160e01b031960e086901b168152600481019390935260248301919091526001600160a01b03166044820152606401606060405180830381865af4158015611ee1573d5f803e3d5ffd5b505050506040513d601f19601f82011682018060405250810190611f059190614904565b9199909850909650945050505050565b5f80805f80516020614ce48339815191525c15611f455760405163a528ff4360e01b815260040160405180910390fd5b611f4d61385f565b5f898152602081905260409020601701548990610100900460ff1615611f86576040516303ef0fb160e51b815260040160405180910390fd5b5f8a815260208190526040902073__$3cc617d03a482caa4c26d9b94ae258b9f7$__90631be46f9c90338c8c611fc46003546001600160a01b031690565b6004546001600160a01b03168e8e8e6040518a63ffffffff1660e01b8152600401611ff799989796959493929190614afb565b606060405180830381865af4158015612012573d5f803e3d5ffd5b505050506040513d601f19601f820116820180604052508101906120369190614904565b604080518481526020810184905290810182905292965090945092506001600160a01b038a169033908c907fb52292f46324c668438c13eae0859c783b8516639ed3b8c8c2ab842e63e9dea89060600160405180910390a4506115cd613872565b6005546001600160a01b031633146120c2576040516354682c0160e01b815260040160405180910390fd5b5f8281526020819052604090206120dc6015820183613a69565b827f4af50c596a427a3e508cc9b0adfdd9ea10e06c4d1e36d1bfd7f5af688f7087948360405161210e91815260200190565b60405180910390a2505050565b5f805f80516020614ce48339815191525c1561214a5760405163a528ff4360e01b815260040160405180910390fd5b61215261385f565b5f87815260208190526040908190209051632f33a49360e21b8152889173__$47663d7950ea063f6eb3e635c08c22f1f9$__9163bcce924c9161219b9160040190815260200190565b602060405180830381865af41580156121b6573d5f803e3d5ffd5b505050506040513d601f19601f820116820180604052508101906121da91906148e9565b6121f7576040516305bb301f60e51b815260040160405180910390fd5b5f888152602081905260409020600e01548890610100900460ff1615612230576040516378e287e360e01b815260040160405180910390fd5b5f89815260208190526040902073__$47663d7950ea063f6eb3e635c08c22f1f9$__63ed22d2ee82338b8d8c8c6040518763ffffffff1660e01b815260040161227e969594939291906149aa565b6040805180830381865af4158015612298573d5f803e3d5ffd5b505050506040513d601f19601f820116820180604052508101906122bc919061492f565b604080518b815260208101849052908101829052919650945033908a908c907fc901c80d52ba5274697ecdce2dca541020aa66e35eef49e801708ae75bd36e2a9060600160405180910390a4505050612313613872565b9550959350505050565b612325613a96565b61232e5f613ae2565b565b6005546001600160a01b0316331461235b576040516354682c0160e01b815260040160405180910390fd5b5f86815260208190526040908190209051632f33a49360e21b8152879173__$47663d7950ea063f6eb3e635c08c22f1f9$__9163bcce924c916123a49160040190815260200190565b602060405180830381865af41580156123bf573d5f803e3d5ffd5b505050506040513d601f19601f820116820180604052508101906123e391906148e9565b612400576040516305bb301f60e51b815260040160405180910390fd5b674563918244f4000084111561242957604051632d8768f960e01b815260040160405180910390fd5b5f87815260208190526040808220600281015460018054908301549351630b4edfaf60e11b81526001600160a01b03928316600482018190529483166024820152306044820152606481018c9052608481018b905292949283929091169063169dbf5e9060a40160408051808303815f875af11580156124ab573d5f803e3d5ffd5b505050506040513d601f19601f820116820180604052508101906124cf9190614b5e565b915091506124e18b898585858f613b52565b6003546001600160a01b03166040516310dac67f60e21b8152600481018d905260248101899052604481018890526001600160a01b03919091169063436b19fc906064015f604051808303815f87803b15801561253c575f80fd5b505af115801561254e573d5f803e3d5ffd5b5050505073__$3cc617d03a482caa4c26d9b94ae258b9f7$__63aec592dc856001875f015461257d9190614b9f565b6003546001600160a01b03166004546001600160a01b03166040518563ffffffff1660e01b81526004016125b49493929190614a8c565b5f6040518083038186803b1580156125ca575f80fd5b505af41580156125dc573d5f803e3d5ffd5b505050505050505050505050505050565b5f818152602081905260408082209051632a363e1760e11b8152600481018290528291829173__$47663d7950ea063f6eb3e635c08c22f1f9$__9063546c7c2e90602401606060405180830381865af415801561264c573d5f803e3d5ffd5b505050506040513d601f19601f820116820180604052508101906126709190614904565b919790965090945092505050565b6005546001600160a01b031633146126a9576040516354682c0160e01b815260040160405180910390fd5b5f8581526020819052604090819020905163c4a6344b60e01b815260048101829052851515602482015284151560448201528315156064820152821515608482015273__$47663d7950ea063f6eb3e635c08c22f1f9$__9063c4a6344b9060a4015f6040518083038186803b158015612720575f80fd5b505af4158015612732573d5f803e3d5ffd5b5050604080518815158152871515602082015286151581830152851515606082015290518993507f1ed5e0669b15e410977d530dc3dc36912a14c56319455a3cab846cb45ccea81392509081900360800190a2505050505050565b7ff0c57e16840df040f15088dc2f81fe391c3923bec73e23a9662efc9c229c6a008054600160401b810460ff16159067ffffffffffffffff165f811580156127d25750825b90505f8267ffffffffffffffff1660011480156127ee5750303b155b9050811580156127fc575080155b1561281a5760405163f92ee8a960e01b815260040160405180910390fd5b845467ffffffffffffffff19166001178555831561284457845460ff60401b1916600160401b1785555b6001600160a01b038b16158061286157506001600160a01b038a16155b8061287357506001600160a01b038916155b8061288557506001600160a01b038816155b8061289757506001600160a01b038716155b156128b55760405163d92e233d60e01b815260040160405180910390fd5b6128be33613cfd565b6128c6613d0e565b6128d48b8b8b8b8b8b613d16565b831561291a57845460ff60401b19168555604051600181527fc7f505b2f371ae2175ee4913f4499e1f2633a7b5936321eed1cdaeb6115181d29060200160405180910390a15b5050505050505050505050565b5f818152602081905260408082209051636da5627d60e11b81526004810182905273__$47663d7950ea063f6eb3e635c08c22f1f9$__9063db4ac4fa9060240161119c565b5f838152602081905260408082209051632f33a49360e21b8152859173__$47663d7950ea063f6eb3e635c08c22f1f9$__9163bcce924c916129b49160040190815260200190565b602060405180830381865af41580156129cf573d5f803e3d5ffd5b505050506040513d601f19601f820116820180604052508101906129f391906148e9565b612a10576040516305bb301f60e51b815260040160405180910390fd5b5f858152602081905260409020600e01548590610100900460ff1615612a49576040516378e287e360e01b815260040160405180910390fd5b5f868152602081905260409081902090516366ad348160e11b815260048101829052602481018790526044810186905273__$47663d7950ea063f6eb3e635c08c22f1f9$__9063cd5a690290606401602060405180830381865af4158015612ab3573d5f803e3d5ffd5b505050506040513d601f19601f82011682018060405250810190612ad791906149ef565b979650505050505050565b5f828152602081905260408120601701548390610100900460ff1615612b1b57604051638400da6560e01b815260040160405180910390fd5b5f84815260208190526040902073__$3cc617d03a482caa4c26d9b94ae258b9f7$__633c8d57b1823387612b576003546001600160a01b031690565b6004546001600160a01b03166040516001600160e01b031960e088901b16815260048101959095526001600160a01b03938416602486015260448501929092528216606484015216608482015260a401602060405180830381865af4158015612bc2573d5f803e3d5ffd5b505050506040513d601f19601f82011682018060405250810190612be691906149ef565b9250336001600160a01b0316857f7f6aa3e2623e42a2bd437a912b332ba383b4004a593c06ae69511f55d04ef8ae85604051612c2491815260200190565b60405180910390a3505092915050565b5f828152602081905260408082209051632f33a49360e21b815282918291869173__$47663d7950ea063f6eb3e635c08c22f1f9$__9163bcce924c91612c809160040190815260200190565b602060405180830381865af4158015612c9b573d5f803e3d5ffd5b505050506040513d601f19601f82011682018060405250810190612cbf91906148e9565b612cdc576040516305bb301f60e51b815260040160405180910390fd5b5f868152602081905260409020600e0154869060ff1615612d1057604051636d34a66760e01b815260040160405180910390fd5b5f87815260208190526040908190209051633138cc5b60e01b8152600481018290526024810188905273__$47663d7950ea063f6eb3e635c08c22f1f9$__90633138cc5b90604401606060405180830381865af4158015612d73573d5f803e3d5ffd5b505050506040513d601f19601f82011682018060405250810190612d979190614904565b919a90995090975095505050505050565b5f818152602081905260408082209051621e2c6960e81b81526004810182905273__$47663d7950ea063f6eb3e635c08c22f1f9$__90631e2c69009060240161119c565b5f818152602081905260408082209051630b8a185760e01b81526004810182905273__$47663d7950ea063f6eb3e635c08c22f1f9$__90630b8a18579060240161119c565b5f868152602081905260408120600e01548190819081908a9060ff1615612e6b57604051636d34a66760e01b815260040160405180910390fd5b5f8b815260208190526040902073__$47663d7950ea063f6eb3e635c08c22f1f9$__63034adbe7828d8d8d612ea86003546001600160a01b031690565b8e8e6040518863ffffffff1660e01b8152600401612ecc9796959493929190614a06565b608060405180830381865af4158015612ee7573d5f803e3d5ffd5b505050506040513d601f19601f82011682018060405250810190612f0b9190614a59565b92985090965094509250338154604080518c8152602081018e9052908101889052606081018990526080810186905260a081018790526001600160a01b0392909216918e907fe5c9cd5ee6f39cc7d92c61fd3a581d28ca3f637739eed507c9f18f9580aea38e9060c00160405180910390a450509650965096509692505050565b5f8381526020819052604090819020905163bfa78a0760e01b8152600481018290526001600160a01b0384166024820152821515604482015273__$47663d7950ea063f6eb3e635c08c22f1f9$__9063bfa78a07906064015f6040518083038186803b158015612ffa575f80fd5b505af415801561300c573d5f803e3d5ffd5b5050505050505050565b6005546001600160a01b03163314613041576040516354682c0160e01b815260040160405180910390fd5b5f61307c8585604080518082019091525f808252602082015250604080518082019091526001600160a01b0392831681529116602082015290565b90505f61308882613884565b5f81815260208190526040908190209051632f33a49360e21b8152600481018290529192509073__$47663d7950ea063f6eb3e635c08c22f1f9$__9063bcce924c90602401602060405180830381865af41580156130e8573d5f803e3d5ffd5b505050506040513d601f19601f8201168201806040525081019061310c91906148e9565b156131295760405162dc149f60e41b815260040160405180910390fd5b600154604051637d39041b60e11b81526001600160a01b0388811660048301528981166024830152306044830152909116905f90829063fa720836906064016020604051808303815f875af1158015613184573d5f803e3d5ffd5b505050506040513d601f19601f820116820180604052508101906131a89190614bb2565b604051635968f79160e11b815290915073__$47663d7950ea063f6eb3e635c08c22f1f9$__9063b2d1ef22906131e49086908990600401614bcd565b5f6040518083038186803b1580156131fa575f80fd5b505af415801561320c573d5f803e3d5ffd5b505060405163701c678160e11b8152600f860160048201526001600160a01b038085166024830152604482018b90528b1660648201526084810189905273__$3cc617d03a482caa4c26d9b94ae258b9f7$__925063e038cf02915060a4015f6040518083038186803b158015613280575f80fd5b505af4158015613292573d5f803e3d5ffd5b50506040516001600160a01b038481168252808c1693508c16915086907fae083855f4c581adebb32fef1193b4293909dac5af86b9c2004d6d578e6a8e6c9060200160405180910390a4505050505050505050565b5f8281526020819052604080822090516323012d5960e11b81526004810182905260248101849052829182918291829173__$47663d7950ea063f6eb3e635c08c22f1f9$__906346025ab29060440160c060405180830381865af4158015613351573d5f803e3d5ffd5b505050506040513d601f19601f820116820180604052508101906133759190614bf7565b50939c929b5090995097509095509350505050565b5f80805f80516020614ce48339815191525c156133ba5760405163a528ff4360e01b815260040160405180910390fd5b6133c261385f565b5f878152602081905260409020601701548790610100900460ff16156133fb576040516303ef0fb160e51b815260040160405180910390fd5b5f88815260208190526040902073__$3cc617d03a482caa4c26d9b94ae258b9f7$__631be46f9c82338b8b6134386003546001600160a01b031690565b6004546001600160a01b031660405180602001604052805f8152505f8f6040518a63ffffffff1660e01b815260040161347999989796959493929190614afb565b606060405180830381865af4158015613494573d5f803e3d5ffd5b505050506040513d601f19601f820116820180604052508101906134b89190614904565b604080518481526020810184905290810182905292975090955093506001600160a01b0389169033908b907fb52292f46324c668438c13eae0859c783b8516639ed3b8c8c2ab842e63e9dea89060600160405180910390a4505061351a613872565b9450945094915050565b61352c613a96565b6001600160a01b03811661355a57604051631e4fbdf760e01b81525f60048201526024015b60405180910390fd5b61356381613ae2565b50565b5f828152602081905260408120600e015481908490610100900460ff16156135a1576040516378e287e360e01b815260040160405180910390fd5b5f85815260208190526040908190209051630a10f8a760e21b8152600481018290526024810186905273__$47663d7950ea063f6eb3e635c08c22f1f9$__90632843e29c90604401606060405180830381865af4158015613604573d5f803e3d5ffd5b505050506040513d601f19601f820116820180604052508101906136289190614904565b91989197509095505050505050565b5f828152602081905260408120601701548390610100900460ff161561367057604051638400da6560e01b815260040160405180910390fd5b5f84815260208190526040902060035473__$3cc617d03a482caa4c26d9b94ae258b9f7$__91636b1e14a9916001600160a01b03166040516001600160e01b031960e085901b16815260048101929092526001600160a01b0316602482015260448101869052606401602060405180830381865af41580156136f4573d5f803e3d5ffd5b505050506040513d601f19601f8201168201806040525081019061371891906149ef565b949350505050565b5f828152602081905260408120819081908190819073__$47663d7950ea063f6eb3e635c08c22f1f9$__6389113cd682338a6137646003546001600160a01b031690565b6004546001600160a01b03166040516001600160e01b031960e088901b16815260048101959095526001600160a01b03938416602486015260448501929092528216606484015216608482015260a40160a060405180830381865af41580156137cf573d5f803e3d5ffd5b505050506040513d601f19601f820116820180604052508101906137f39190614c3d565b604080518d81526020810186905280820185905260608101849052608081018390529051959b5093995091975095509350879133918b917fcd5ca07d30e16338207706faca78e65cea7e180fd3ecd624733108bfc64fc39b9181900360a00190a4509295509295909350565b60015f80516020614ce48339815191525d565b5f5f80516020614ce48339815191525d565b5f816040516020016138969190614c79565b604051602081830303815290604052805190602001209050919050565b306001600160a01b037f000000000000000000000000000000000000000000000000000000000000000016148061393957507f00000000000000000000000000000000000000000000000000000000000000006001600160a01b031661392d5f80516020614d04833981519152546001600160a01b031690565b6001600160a01b031614155b1561232e5760405163703e46dd60e11b815260040160405180910390fd5b613563613a96565b816001600160a01b03166352d1902d6040518163ffffffff1660e01b8152600401602060405180830381865afa9250505080156139b9575060408051601f3d908101601f191682019092526139b6918101906149ef565b60015b6139e157604051634c9c8ce360e01b81526001600160a01b0383166004820152602401613551565b5f80516020614d048339815191528114613a1157604051632a87526960e21b815260048101829052602401613551565b613a1b8383613da4565b505050565b306001600160a01b037f0000000000000000000000000000000000000000000000000000000000000000161461232e5760405163703e46dd60e11b815260040160405180910390fd5b674563918244f40000811115613a9257604051632d8768f960e01b815260040160405180910390fd5b9055565b7f9016d09d72d40fdae2fd8ceac6b6234c7706214fd39c1cd1e609a0528c199300546001600160a01b0316331461232e5760405163118cdaa760e01b8152336004820152602401613551565b7f9016d09d72d40fdae2fd8ceac6b6234c7706214fd39c1cd1e609a0528c19930080546001600160a01b031981166001600160a01b03848116918217845560405192169182907f8be0079c531659141344cd1fd0a4f28419497f9722a3daafe3b4186f6b6457e0905f90a3505050565b5f86815260208190526040812080549091908282613b6f83614c9d565b9091555082549091505f613b8b6002546001600160a01b031690565b6040516364e329cb60e11b81526001600160a01b038a811660048301528981166024830152919091169063c9c65396906044016020604051808303815f875af1158015613bda573d5f803e3d5ffd5b505050506040513d601f19601f82011682018060405250810190613bfe9190614bb2565b9050613c0f8488888486888f613df9565b6003546001600160a01b03166040516340e5196760e11b8152600481018c9052602481018490526001600160a01b03888116604483015283811660648301525f60848301528a811660a483015289811660c483015291909116906381ca32ce9060e4015f604051808303815f87803b158015613c89575f80fd5b505af1158015613c9b573d5f803e3d5ffd5b5050604080516001600160a01b038a811682528b8116602083015285168183015290518893508592508d917f30e25e57603c38cfffc6e111b2bd1cceeaf43f9702c5a4bf32bc530d4a34685e919081900360600190a450505050505050505050565b613d05613f3e565b61356381613f87565b61232e613f3e565b674563918244f400006006541115613d4157604051632d8768f960e01b815260040160405180910390fd5b600180546001600160a01b03199081166001600160a01b0398891617909155600280548216968816969096179095556003805486169487169490941790935560048054851692861692909217909155600580549093169316929092179055600655565b613dad82613f8f565b6040516001600160a01b038316907fbc7cd75a20ee27fd9adebab32041f755214dbc6bffa90cc0225b39da2e5c2d3b905f90a2805115613df157613a1b8282613ff2565b611812614064565b8115613e23575f8281526003880160205260409020613e1781614083565b613e218884614095565b505b5f6007880155600a8701819055613ead8587866040805160a0810182525f808252602082018190529181018290526060810182905260808101919091526040518060a001604052805f15158152602001856001600160a01b03168152602001846001600160a01b03168152602001836001600160a01b031681526020015f81525090509392505050565b5f9384526003978801602090815260409485902082518154928401516001600160a81b0319909316901515610100600160a81b031916176101006001600160a01b0393841602178155948201516001860180546001600160a01b0319908116928416929092179055606083015160028701805490921692169190911790556080015192909601919091555050505050565b7ff0c57e16840df040f15088dc2f81fe391c3923bec73e23a9662efc9c229c6a0054600160401b900460ff1661232e57604051631afcd79f60e31b815260040160405180910390fd5b61352c613f3e565b806001600160a01b03163b5f03613fc457604051634c9c8ce360e01b81526001600160a01b0382166004820152602401613551565b5f80516020614d0483398151915280546001600160a01b0319166001600160a01b0392909216919091179055565b60605f80846001600160a01b03168460405161400e9190614cb5565b5f60405180830381855af49150503d805f8114614046576040519150601f19603f3d011682016040523d82523d5f602084013e61404b565b606091505b509150915061405b8583836141af565b95945050505050565b341561232e5760405163b398979f60e01b815260040160405180910390fd5b61408c8161420b565b61356381614231565b600881901c5f908152600b83016020526040902054600160ff83161b16156140bb575050565b5f81815260038301602052604090206140d381614083565b5f828152600c840160205260408120906140ef60048601614257565b60098601546001808501829055828555850154604080516318160ddd60e01b8152905193945091926001600160a01b03909116916318160ddd9160048281019260209291908290030181865afa15801561414b573d5f803e3d5ffd5b505050506040513d601f19601f8201168201806040525081019061416f91906149ef565b60028401555f6005870181905560068701555f60098701819055600886901c8152600b8701602052604090208054600160ff88161b179055505050505050565b6060826141c4576141bf82614294565b6111db565b81511580156141db57506001600160a01b0384163b155b1561420457604051639996b31560e01b81526001600160a01b0385166004820152602401613551565b50806111db565b614214816142bd565b613563576040516305bb301f60e51b815260040160405180910390fd5b61423a816142eb565b6135635760405163d0404f8560e01b815260040160405180910390fd5b5f81600101545f0361426b57506002015490565b8160010154826002015461427f9190614cd0565b600283018190555f6001909301929092555090565b8051156142a45780518082602001fd5b604051630a12f52160e11b815260040160405180910390fd5b80545f9061010090046001600160a01b031615801590611228575050600101546001600160a01b0316151590565b5f815f0160019054906101000a90046001600160a01b03166001600160a01b0316632f13b60c6040518163ffffffff1660e01b8152600401602060405180830381865afa15801561433e573d5f803e3d5ffd5b505050506040513d601f19601f8201168201806040525081019061122891906148e9565b5f8060408385031215614373575f80fd5b50508035926020909101359150565b5f805f60608486031215614394575f80fd5b505081359360208301359350604090920135919050565b5f602082840312156143bb575f80fd5b5035919050565b6001600160a01b0381168114613563575f80fd5b5f80604083850312156143e7575f80fd5b82356143f2816143c2565b91506020830135614402816143c2565b809150509250929050565b634e487b7160e01b5f52604160045260245ffd5b5f82601f830112614430575f80fd5b813567ffffffffffffffff8082111561444b5761444b61440d565b604051601f8301601f19908116603f011681019082821181831017156144735761447361440d565b8160405283815286602085880101111561448b575f80fd5b836020870160208301375f602085830101528094505050505092915050565b5f805f805f8060c087890312156144bf575f80fd5b8635955060208701359450604087013567ffffffffffffffff808211156144e4575f80fd5b6144f08a838b01614421565b955060608901359450608089013591508082111561450c575f80fd5b5061451989828a01614421565b92505060a087013590509295509295509295565b5f805f8060808587031215614540575f80fd5b843593506020850135614552816143c2565b93969395505050506040820135916060013590565b5f8060408385031215614578575f80fd5b8235614583816143c2565b9150602083013567ffffffffffffffff81111561459e575f80fd5b6145aa85828601614421565b9150509250929050565b5f805f805f60a086880312156145c8575f80fd5b853594506020860135935060408601359250606086013567ffffffffffffffff8111156145f3575f80fd5b6145ff88828901614421565b95989497509295608001359392505050565b5f805f805f8060c08789031215614626575f80fd5b863595506020870135614638816143c2565b945060408701359350606087013567ffffffffffffffff81111561465a575f80fd5b61466689828a01614421565b9350506080870135915060a087013590509295509295509295565b5f805f805f8060c08789031215614696575f80fd5b505084359660208601359650604086013595606081013595506080810135945060a0013592509050565b8015158114613563575f80fd5b5f805f805f60a086880312156146e1575f80fd5b8535945060208601356146f3816146c0565b93506040860135614703816146c0565b92506060860135614713816146c0565b91506080860135614723816146c0565b809150509295509295909350565b5f805f805f8060c08789031215614746575f80fd5b8635614751816143c2565b95506020870135614761816143c2565b94506040870135614771816143c2565b93506060870135614781816143c2565b92506080870135614791816143c2565b8092505060a087013590509295509295509295565b5f5b838110156147c05781810151838201526020016147a8565b50505f910152565b5f81518084526147df8160208601602086016147a6565b601f01601f19169290920160200192915050565b602081525f61122560208301846147c8565b5f805f805f8060c0878903121561481a575f80fd5b86359550602087013561482c816143c2565b94506040870135935060608701359250608087013567ffffffffffffffff811115614855575f80fd5b61451989828a01614421565b5f805f60608486031215614873575f80fd5b833592506020840135614885816143c2565b91506040840135614895816146c0565b809150509250925092565b5f805f80608085870312156148b3575f80fd5b84356148be816143c2565b93506020850135614552816143c2565b5f602082840312156148de575f80fd5b81356111db816143c2565b5f602082840312156148f9575f80fd5b81516111db816146c0565b5f805f60608486031215614916575f80fd5b8351925060208401519150604084015190509250925092565b5f8060408385031215614940575f80fd5b505080516020909101519092909150565b87815260018060a01b038716602082015285604082015260e060608201525f61497d60e08301876147c8565b85608084015282810360a084015261499581866147c8565b9150508260c083015298975050505050505050565b86815260018060a01b038616602082015284604082015283606082015260c060808201525f6149dc60c08301856147c8565b90508260a0830152979650505050505050565b5f602082840312156149ff575f80fd5b5051919050565b8781526001600160a01b03878116602083015260408201879052606082018690528416608082015260e060a082018190525f90614a45908301856147c8565b90508260c083015298975050505050505050565b5f805f8060808587031215614a6c575f80fd5b505082516020840151604085015160609095015191969095509092509050565b93845260208401929092526001600160a01b03908116604084015216606082015260800190565b87815260018060a01b038716602082015285604082015284606082015260e060808201525f614ae560e08301866147c8565b60a08301949094525060c0015295945050505050565b8981526001600160a01b0389811660208301528881166040830152606082018890528681166080830152851660a082015261012060c082018190525f90614b44838201876147c8565b60e084019590955250506101000152979650505050505050565b5f8060408385031215614b6f575f80fd5b8251614b7a816143c2565b6020840151909250614402816143c2565b634e487b7160e01b5f52601160045260245ffd5b8181038181111561122857611228614b8b565b5f60208284031215614bc2575f80fd5b81516111db816143c2565b828152606081016111db602083018480516001600160a01b03908116835260209182015116910152565b5f805f805f8060c08789031215614c0c575f80fd5b865195506020870151945060408701519350606087015192506080870151915060a087015190509295509295509295565b5f805f805f60a08688031215614c51575f80fd5b5050835160208501516040860151606087015160809097015192989197509594509092509050565b60408101611228828480516001600160a01b03908116835260209182015116910152565b5f60018201614cae57614cae614b8b565b5060010190565b5f8251614cc68184602087016147a6565b9190910192915050565b8082018082111561122857611228614b8b56fe10bc01d611f2c803e55ff98d999836f196afae7cf91f96f3b6f511e56ba84973360894a13ba1a3210667c828492db98dca3e2076cc3735a920a3ca505d382bbca2646970667358221220a2e7f2add3128e663662fe53b4edc49679863b9efe13816065f7b982f5b3f41064736f6c63430008180033",
  "linkReferences": {
    "contracts/libraries/PsmLib.sol": {
      "PsmLibrary": [
        {
          "length": 20,
          "start": 2828
        },
        {
          "length": 20,
          "start": 3017
        },
        {
          "length": 20,
          "start": 3265
        },
        {
          "length": 20,
          "start": 3685
        },
        {
          "length": 20,
          "start": 3977
        },
        {
          "length": 20,
          "start": 4208
        },
        {
          "length": 20,
          "start": 4536
        },
        {
          "length": 20,
          "start": 4798
        },
        {
          "length": 20,
          "start": 4960
        },
        {
          "length": 20,
          "start": 5188
        },
        {
          "length": 20,
          "start": 5422
        },
        {
          "length": 20,
          "start": 5726
        },
        {
          "length": 20,
          "start": 6311
        },
        {
          "length": 20,
          "start": 6520
        },
        {
          "length": 20,
          "start": 7039
        },
        {
          "length": 20,
          "start": 7160
        },
        {
          "length": 20,
          "start": 7369
        },
        {
          "length": 20,
          "start": 8619
        },
        {
          "length": 20,
          "start": 8825
        },
        {
          "length": 20,
          "start": 9140
        },
        {
          "length": 20,
          "start": 9806
        },
        {
          "length": 20,
          "start": 10023
        },
        {
          "length": 20,
          "start": 10628
        },
        {
          "length": 20,
          "start": 10692
        },
        {
          "length": 20,
          "start": 10933
        },
        {
          "length": 20,
          "start": 11408
        },
        {
          "length": 20,
          "start": 11637
        },
        {
          "length": 20,
          "start": 11780
        },
        {
          "length": 20,
          "start": 11849
        },
        {
          "length": 20,
          "start": 11956
        },
        {
          "length": 20,
          "start": 12289
        },
        {
          "length": 20,
          "start": 12522
        },
        {
          "length": 20,
          "start": 12788
        },
        {
          "length": 20,
          "start": 13139
        },
        {
          "length": 20,
          "start": 13830
        },
        {
          "length": 20,
          "start": 14193
        }
      ]
    },
    "contracts/libraries/VaultLib.sol": {
      "VaultLibrary": [
        {
          "length": 20,
          "start": 6057
        },
        {
          "length": 20,
          "start": 6671
        },
        {
          "length": 20,
          "start": 7506
        },
        {
          "length": 20,
          "start": 7839
        },
        {
          "length": 20,
          "start": 8143
        },
        {
          "length": 20,
          "start": 9614
        },
        {
          "length": 20,
          "start": 11108
        },
        {
          "length": 20,
          "start": 12933
        },
        {
          "length": 20,
          "start": 13380
        },
        {
          "length": 20,
          "start": 14012
        }
      ]
    }
  },
  "deployedLinkReferences": {
    "contracts/libraries/PsmLib.sol": {
      "PsmLibrary": [
        {
          "length": 20,
          "start": 2770
        },
        {
          "length": 20,
          "start": 2959
        },
        {
          "length": 20,
          "start": 3207
        },
        {
          "length": 20,
          "start": 3627
        },
        {
          "length": 20,
          "start": 3919
        },
        {
          "length": 20,
          "start": 4150
        },
        {
          "length": 20,
          "start": 4478
        },
        {
          "length": 20,
          "start": 4740
        },
        {
          "length": 20,
          "start": 4902
        },
        {
          "length": 20,
          "start": 5130
        },
        {
          "length": 20,
          "start": 5364
        },
        {
          "length": 20,
          "start": 5668
        },
        {
          "length": 20,
          "start": 6253
        },
        {
          "length": 20,
          "start": 6462
        },
        {
          "length": 20,
          "start": 6981
        },
        {
          "length": 20,
          "start": 7102
        },
        {
          "length": 20,
          "start": 7311
        },
        {
          "length": 20,
          "start": 8561
        },
        {
          "length": 20,
          "start": 8767
        },
        {
          "length": 20,
          "start": 9082
        },
        {
          "length": 20,
          "start": 9748
        },
        {
          "length": 20,
          "start": 9965
        },
        {
          "length": 20,
          "start": 10570
        },
        {
          "length": 20,
          "start": 10634
        },
        {
          "length": 20,
          "start": 10875
        },
        {
          "length": 20,
          "start": 11350
        },
        {
          "length": 20,
          "start": 11579
        },
        {
          "length": 20,
          "start": 11722
        },
        {
          "length": 20,
          "start": 11791
        },
        {
          "length": 20,
          "start": 11898
        },
        {
          "length": 20,
          "start": 12231
        },
        {
          "length": 20,
          "start": 12464
        },
        {
          "length": 20,
          "start": 12730
        },
        {
          "length": 20,
          "start": 13081
        },
        {
          "length": 20,
          "start": 13772
        },
        {
          "length": 20,
          "start": 14135
        }
      ]
    },
    "contracts/libraries/VaultLib.sol": {
      "VaultLibrary": [
        {
          "length": 20,
          "start": 5999
        },
        {
          "length": 20,
          "start": 6613
        },
        {
          "length": 20,
          "start": 7448
        },
        {
          "length": 20,
          "start": 7781
        },
        {
          "length": 20,
          "start": 8085
        },
        {
          "length": 20,
          "start": 9556
        },
        {
          "length": 20,
          "start": 11050
        },
        {
          "length": 20,
          "start": 12875
        },
        {
          "length": 20,
          "start": 13322
        },
        {
          "length": 20,
          "start": 13954
        }
      ]
    }
  }
}