{
  "abi": [
    {
      "type": "constructor",
      "inputs": [
        {
          "name": "integrations",
          "type": "tuple",
          "internalType": "struct Base.Integrations",
          "components": [
            {
              "name": "evc",
              "type": "address",
              "internalType": "address"
            },
            {
              "name": "protocolConfig",
              "type": "address",
              "internalType": "address"
            },
            {
              "name": "sequenceRegistry",
              "type": "address",
              "internalType": "address"
            },
            {
              "name": "balanceTracker",
              "type": "address",
              "internalType": "address"
            },
            {
              "name": "permit2",
              "type": "address",
              "internalType": "address"
            }
          ]
        },
        {
          "name": "modules",
          "type": "tuple",
          "internalType": "struct Dispatch.DeployedModules",
          "components": [
            {
              "name": "initialize",
              "type": "address",
              "internalType": "address"
            },
            {
              "name": "token",
              "type": "address",
              "internalType": "address"
            },
            {
              "name": "vault",
              "type": "address",
              "internalType": "address"
            },
            {
              "name": "borrowing",
              "type": "address",
              "internalType": "address"
            },
            {
              "name": "liquidation",
              "type": "address",
              "internalType": "address"
            },
            {
              "name": "riskManager",
              "type": "address",
              "internalType": "address"
            },
            {
              "name": "balanceForwarder",
              "type": "address",
              "internalType": "address"
            },
            {
              "name": "governance",
              "type": "address",
              "internalType": "address"
            }
          ]
        }
      ],
      "stateMutability": "nonpayable"
    },
    {
      "type": "function",
      "name": "EVC",
      "inputs": [],
      "outputs": [
        {
          "name": "",
          "type": "address",
          "internalType": "address"
        }
      ],
      "stateMutability": "view"
    },
    {
      "type": "function",
      "name": "LTVBorrow",
      "inputs": [
        {
          "name": "collateral",
          "type": "address",
          "internalType": "address"
        }
      ],
      "outputs": [
        {
          "name": "",
          "type": "uint16",
          "internalType": "uint16"
        }
      ],
      "stateMutability": "view"
    },
    {
      "type": "function",
      "name": "LTVFull",
      "inputs": [
        {
          "name": "collateral",
          "type": "address",
          "internalType": "address"
        }
      ],
      "outputs": [
        {
          "name": "borrowLTV",
          "type": "uint16",
          "internalType": "uint16"
        },
        {
          "name": "liquidationLTV",
          "type": "uint16",
          "internalType": "uint16"
        },
        {
          "name": "initialLiquidationLTV",
          "type": "uint16",
          "internalType": "uint16"
        },
        {
          "name": "targetTimestamp",
          "type": "uint48",
          "internalType": "uint48"
        },
        {
          "name": "rampDuration",
          "type": "uint32",
          "internalType": "uint32"
        }
      ],
      "stateMutability": "view"
    },
    {
      "type": "function",
      "name": "LTVLiquidation",
      "inputs": [
        {
          "name": "collateral",
          "type": "address",
          "internalType": "address"
        }
      ],
      "outputs": [
        {
          "name": "",
          "type": "uint16",
          "internalType": "uint16"
        }
      ],
      "stateMutability": "view"
    },
    {
      "type": "function",
      "name": "LTVList",
      "inputs": [],
      "outputs": [
        {
          "name": "",
          "type": "address[]",
          "internalType": "address[]"
        }
      ],
      "stateMutability": "view"
    },
    {
      "type": "function",
      "name": "MODULE_BALANCE_FORWARDER",
      "inputs": [],
      "outputs": [
        {
          "name": "",
          "type": "address",
          "internalType": "address"
        }
      ],
      "stateMutability": "view"
    },
    {
      "type": "function",
      "name": "MODULE_BORROWING",
      "inputs": [],
      "outputs": [
        {
          "name": "",
          "type": "address",
          "internalType": "address"
        }
      ],
      "stateMutability": "view"
    },
    {
      "type": "function",
      "name": "MODULE_GOVERNANCE",
      "inputs": [],
      "outputs": [
        {
          "name": "",
          "type": "address",
          "internalType": "address"
        }
      ],
      "stateMutability": "view"
    },
    {
      "type": "function",
      "name": "MODULE_INITIALIZE",
      "inputs": [],
      "outputs": [
        {
          "name": "",
          "type": "address",
          "internalType": "address"
        }
      ],
      "stateMutability": "view"
    },
    {
      "type": "function",
      "name": "MODULE_LIQUIDATION",
      "inputs": [],
      "outputs": [
        {
          "name": "",
          "type": "address",
          "internalType": "address"
        }
      ],
      "stateMutability": "view"
    },
    {
      "type": "function",
      "name": "MODULE_RISKMANAGER",
      "inputs": [],
      "outputs": [
        {
          "name": "",
          "type": "address",
          "internalType": "address"
        }
      ],
      "stateMutability": "view"
    },
    {
      "type": "function",
      "name": "MODULE_TOKEN",
      "inputs": [],
      "outputs": [
        {
          "name": "",
          "type": "address",
          "internalType": "address"
        }
      ],
      "stateMutability": "view"
    },
    {
      "type": "function",
      "name": "MODULE_VAULT",
      "inputs": [],
      "outputs": [
        {
          "name": "",
          "type": "address",
          "internalType": "address"
        }
      ],
      "stateMutability": "view"
    },
    {
      "type": "function",
      "name": "accountLiquidity",
      "inputs": [
        {
          "name": "account",
          "type": "address",
          "internalType": "address"
        },
        {
          "name": "liquidation",
          "type": "bool",
          "internalType": "bool"
        }
      ],
      "outputs": [
        {
          "name": "collateralValue",
          "type": "uint256",
          "internalType": "uint256"
        },
        {
          "name": "liabilityValue",
          "type": "uint256",
          "internalType": "uint256"
        }
      ],
      "stateMutability": "view"
    },
    {
      "type": "function",
      "name": "accountLiquidityFull",
      "inputs": [
        {
          "name": "account",
          "type": "address",
          "internalType": "address"
        },
        {
          "name": "liquidation",
          "type": "bool",
          "internalType": "bool"
        }
      ],
      "outputs": [
        {
          "name": "collaterals",
          "type": "address[]",
          "internalType": "address[]"
        },
        {
          "name": "collateralValues",
          "type": "uint256[]",
          "internalType": "uint256[]"
        },
        {
          "name": "liabilityValue",
          "type": "uint256",
          "internalType": "uint256"
        }
      ],
      "stateMutability": "view"
    },
    {
      "type": "function",
      "name": "accumulatedFees",
      "inputs": [],
      "outputs": [
        {
          "name": "",
          "type": "uint256",
          "internalType": "uint256"
        }
      ],
      "stateMutability": "view"
    },
    {
      "type": "function",
      "name": "accumulatedFeesAssets",
      "inputs": [],
      "outputs": [
        {
          "name": "",
          "type": "uint256",
          "internalType": "uint256"
        }
      ],
      "stateMutability": "view"
    },
    {
      "type": "function",
      "name": "allowance",
      "inputs": [
        {
          "name": "holder",
          "type": "address",
          "internalType": "address"
        },
        {
          "name": "spender",
          "type": "address",
          "internalType": "address"
        }
      ],
      "outputs": [
        {
          "name": "",
          "type": "uint256",
          "internalType": "uint256"
        }
      ],
      "stateMutability": "view"
    },
    {
      "type": "function",
      "name": "approve",
      "inputs": [
        {
          "name": "spender",
          "type": "address",
          "internalType": "address"
        },
        {
          "name": "amount",
          "type": "uint256",
          "internalType": "uint256"
        }
      ],
      "outputs": [
        {
          "name": "",
          "type": "bool",
          "internalType": "bool"
        }
      ],
      "stateMutability": "nonpayable"
    },
    {
      "type": "function",
      "name": "asset",
      "inputs": [],
      "outputs": [
        {
          "name": "",
          "type": "address",
          "internalType": "address"
        }
      ],
      "stateMutability": "view"
    },
    {
      "type": "function",
      "name": "balanceForwarderEnabled",
      "inputs": [
        {
          "name": "account",
          "type": "address",
          "internalType": "address"
        }
      ],
      "outputs": [
        {
          "name": "",
          "type": "bool",
          "internalType": "bool"
        }
      ],
      "stateMutability": "view"
    },
    {
      "type": "function",
      "name": "balanceOf",
      "inputs": [
        {
          "name": "account",
          "type": "address",
          "internalType": "address"
        }
      ],
      "outputs": [
        {
          "name": "",
          "type": "uint256",
          "internalType": "uint256"
        }
      ],
      "stateMutability": "view"
    },
    {
      "type": "function",
      "name": "balanceTrackerAddress",
      "inputs": [],
      "outputs": [
        {
          "name": "",
          "type": "address",
          "internalType": "address"
        }
      ],
      "stateMutability": "view"
    },
    {
      "type": "function",
      "name": "borrow",
      "inputs": [
        {
          "name": "amount",
          "type": "uint256",
          "internalType": "uint256"
        },
        {
          "name": "receiver",
          "type": "address",
          "internalType": "address"
        }
      ],
      "outputs": [
        {
          "name": "",
          "type": "uint256",
          "internalType": "uint256"
        }
      ],
      "stateMutability": "nonpayable"
    },
    {
      "type": "function",
      "name": "caps",
      "inputs": [],
      "outputs": [
        {
          "name": "supplyCap",
          "type": "uint16",
          "internalType": "uint16"
        },
        {
          "name": "borrowCap",
          "type": "uint16",
          "internalType": "uint16"
        }
      ],
      "stateMutability": "view"
    },
    {
      "type": "function",
      "name": "cash",
      "inputs": [],
      "outputs": [
        {
          "name": "",
          "type": "uint256",
          "internalType": "uint256"
        }
      ],
      "stateMutability": "view"
    },
    {
      "type": "function",
      "name": "checkAccountStatus",
      "inputs": [
        {
          "name": "account",
          "type": "address",
          "internalType": "address"
        },
        {
          "name": "collaterals",
          "type": "address[]",
          "internalType": "address[]"
        }
      ],
      "outputs": [
        {
          "name": "",
          "type": "bytes4",
          "internalType": "bytes4"
        }
      ],
      "stateMutability": "view"
    },
    {
      "type": "function",
      "name": "checkLiquidation",
      "inputs": [
        {
          "name": "liquidator",
          "type": "address",
          "internalType": "address"
        },
        {
          "name": "violator",
          "type": "address",
          "internalType": "address"
        },
        {
          "name": "collateral",
          "type": "address",
          "internalType": "address"
        }
      ],
      "outputs": [
        {
          "name": "maxRepay",
          "type": "uint256",
          "internalType": "uint256"
        },
        {
          "name": "maxYield",
          "type": "uint256",
          "internalType": "uint256"
        }
      ],
      "stateMutability": "view"
    },
    {
      "type": "function",
      "name": "checkVaultStatus",
      "inputs": [],
      "outputs": [
        {
          "name": "",
          "type": "bytes4",
          "internalType": "bytes4"
        }
      ],
      "stateMutability": "nonpayable"
    },
    {
      "type": "function",
      "name": "configFlags",
      "inputs": [],
      "outputs": [
        {
          "name": "",
          "type": "uint32",
          "internalType": "uint32"
        }
      ],
      "stateMutability": "view"
    },
    {
      "type": "function",
      "name": "convertFees",
      "inputs": [],
      "outputs": [],
      "stateMutability": "nonpayable"
    },
    {
      "type": "function",
      "name": "convertToAssets",
      "inputs": [
        {
          "name": "shares",
          "type": "uint256",
          "internalType": "uint256"
        }
      ],
      "outputs": [
        {
          "name": "",
          "type": "uint256",
          "internalType": "uint256"
        }
      ],
      "stateMutability": "view"
    },
    {
      "type": "function",
      "name": "convertToShares",
      "inputs": [
        {
          "name": "assets",
          "type": "uint256",
          "internalType": "uint256"
        }
      ],
      "outputs": [
        {
          "name": "",
          "type": "uint256",
          "internalType": "uint256"
        }
      ],
      "stateMutability": "view"
    },
    {
      "type": "function",
      "name": "creator",
      "inputs": [],
      "outputs": [
        {
          "name": "",
          "type": "address",
          "internalType": "address"
        }
      ],
      "stateMutability": "view"
    },
    {
      "type": "function",
      "name": "dToken",
      "inputs": [],
      "outputs": [
        {
          "name": "",
          "type": "address",
          "internalType": "address"
        }
      ],
      "stateMutability": "view"
    },
    {
      "type": "function",
      "name": "debtOf",
      "inputs": [
        {
          "name": "account",
          "type": "address",
          "internalType": "address"
        }
      ],
      "outputs": [
        {
          "name": "",
          "type": "uint256",
          "internalType": "uint256"
        }
      ],
      "stateMutability": "view"
    },
    {
      "type": "function",
      "name": "debtOfExact",
      "inputs": [
        {
          "name": "account",
          "type": "address",
          "internalType": "address"
        }
      ],
      "outputs": [
        {
          "name": "",
          "type": "uint256",
          "internalType": "uint256"
        }
      ],
      "stateMutability": "view"
    },
    {
      "type": "function",
      "name": "decimals",
      "inputs": [],
      "outputs": [
        {
          "name": "",
          "type": "uint8",
          "internalType": "uint8"
        }
      ],
      "stateMutability": "view"
    },
    {
      "type": "function",
      "name": "deposit",
      "inputs": [
        {
          "name": "amount",
          "type": "uint256",
          "internalType": "uint256"
        },
        {
          "name": "receiver",
          "type": "address",
          "internalType": "address"
        }
      ],
      "outputs": [
        {
          "name": "",
          "type": "uint256",
          "internalType": "uint256"
        }
      ],
      "stateMutability": "nonpayable"
    },
    {
      "type": "function",
      "name": "disableBalanceForwarder",
      "inputs": [],
      "outputs": [],
      "stateMutability": "nonpayable"
    },
    {
      "type": "function",
      "name": "disableController",
      "inputs": [],
      "outputs": [],
      "stateMutability": "nonpayable"
    },
    {
      "type": "function",
      "name": "enableBalanceForwarder",
      "inputs": [],
      "outputs": [],
      "stateMutability": "nonpayable"
    },
    {
      "type": "function",
      "name": "feeReceiver",
      "inputs": [],
      "outputs": [
        {
          "name": "",
          "type": "address",
          "internalType": "address"
        }
      ],
      "stateMutability": "view"
    },
    {
      "type": "function",
      "name": "flashLoan",
      "inputs": [
        {
          "name": "amount",
          "type": "uint256",
          "internalType": "uint256"
        },
        {
          "name": "data",
          "type": "bytes",
          "internalType": "bytes"
        }
      ],
      "outputs": [],
      "stateMutability": "nonpayable"
    },
    {
      "type": "function",
      "name": "governorAdmin",
      "inputs": [],
      "outputs": [
        {
          "name": "",
          "type": "address",
          "internalType": "address"
        }
      ],
      "stateMutability": "view"
    },
    {
      "type": "function",
      "name": "hookConfig",
      "inputs": [],
      "outputs": [
        {
          "name": "",
          "type": "address",
          "internalType": "address"
        },
        {
          "name": "",
          "type": "uint32",
          "internalType": "uint32"
        }
      ],
      "stateMutability": "view"
    },
    {
      "type": "function",
      "name": "initialize",
      "inputs": [
        {
          "name": "proxyCreator",
          "type": "address",
          "internalType": "address"
        }
      ],
      "outputs": [],
      "stateMutability": "nonpayable"
    },
    {
      "type": "function",
      "name": "interestAccumulator",
      "inputs": [],
      "outputs": [
        {
          "name": "",
          "type": "uint256",
          "internalType": "uint256"
        }
      ],
      "stateMutability": "view"
    },
    {
      "type": "function",
      "name": "interestFee",
      "inputs": [],
      "outputs": [
        {
          "name": "",
          "type": "uint16",
          "internalType": "uint16"
        }
      ],
      "stateMutability": "view"
    },
    {
      "type": "function",
      "name": "interestRate",
      "inputs": [],
      "outputs": [
        {
          "name": "",
          "type": "uint256",
          "internalType": "uint256"
        }
      ],
      "stateMutability": "view"
    },
    {
      "type": "function",
      "name": "interestRateModel",
      "inputs": [],
      "outputs": [
        {
          "name": "",
          "type": "address",
          "internalType": "address"
        }
      ],
      "stateMutability": "view"
    },
    {
      "type": "function",
      "name": "liquidate",
      "inputs": [
        {
          "name": "violator",
          "type": "address",
          "internalType": "address"
        },
        {
          "name": "collateral",
          "type": "address",
          "internalType": "address"
        },
        {
          "name": "repayAssets",
          "type": "uint256",
          "internalType": "uint256"
        },
        {
          "name": "minYieldBalance",
          "type": "uint256",
          "internalType": "uint256"
        }
      ],
      "outputs": [],
      "stateMutability": "nonpayable"
    },
    {
      "type": "function",
      "name": "liquidationCoolOffTime",
      "inputs": [],
      "outputs": [
        {
          "name": "",
          "type": "uint16",
          "internalType": "uint16"
        }
      ],
      "stateMutability": "view"
    },
    {
      "type": "function",
      "name": "maxDeposit",
      "inputs": [
        {
          "name": "account",
          "type": "address",
          "internalType": "address"
        }
      ],
      "outputs": [
        {
          "name": "",
          "type": "uint256",
          "internalType": "uint256"
        }
      ],
      "stateMutability": "view"
    },
    {
      "type": "function",
      "name": "maxLiquidationDiscount",
      "inputs": [],
      "outputs": [
        {
          "name": "",
          "type": "uint16",
          "internalType": "uint16"
        }
      ],
      "stateMutability": "view"
    },
    {
      "type": "function",
      "name": "maxMint",
      "inputs": [
        {
          "name": "account",
          "type": "address",
          "internalType": "address"
        }
      ],
      "outputs": [
        {
          "name": "",
          "type": "uint256",
          "internalType": "uint256"
        }
      ],
      "stateMutability": "view"
    },
    {
      "type": "function",
      "name": "maxRedeem",
      "inputs": [
        {
          "name": "owner",
          "type": "address",
          "internalType": "address"
        }
      ],
      "outputs": [
        {
          "name": "",
          "type": "uint256",
          "internalType": "uint256"
        }
      ],
      "stateMutability": "view"
    },
    {
      "type": "function",
      "name": "maxWithdraw",
      "inputs": [
        {
          "name": "owner",
          "type": "address",
          "internalType": "address"
        }
      ],
      "outputs": [
        {
          "name": "",
          "type": "uint256",
          "internalType": "uint256"
        }
      ],
      "stateMutability": "view"
    },
    {
      "type": "function",
      "name": "mint",
      "inputs": [
        {
          "name": "amount",
          "type": "uint256",
          "internalType": "uint256"
        },
        {
          "name": "receiver",
          "type": "address",
          "internalType": "address"
        }
      ],
      "outputs": [
        {
          "name": "",
          "type": "uint256",
          "internalType": "uint256"
        }
      ],
      "stateMutability": "nonpayable"
    },
    {
      "type": "function",
      "name": "name",
      "inputs": [],
      "outputs": [
        {
          "name": "",
          "type": "string",
          "internalType": "string"
        }
      ],
      "stateMutability": "view"
    },
    {
      "type": "function",
      "name": "oracle",
      "inputs": [],
      "outputs": [
        {
          "name": "",
          "type": "address",
          "internalType": "address"
        }
      ],
      "stateMutability": "view"
    },
    {
      "type": "function",
      "name": "permit2Address",
      "inputs": [],
      "outputs": [
        {
          "name": "",
          "type": "address",
          "internalType": "address"
        }
      ],
      "stateMutability": "view"
    },
    {
      "type": "function",
      "name": "previewDeposit",
      "inputs": [
        {
          "name": "assets",
          "type": "uint256",
          "internalType": "uint256"
        }
      ],
      "outputs": [
        {
          "name": "",
          "type": "uint256",
          "internalType": "uint256"
        }
      ],
      "stateMutability": "view"
    },
    {
      "type": "function",
      "name": "previewMint",
      "inputs": [
        {
          "name": "shares",
          "type": "uint256",
          "internalType": "uint256"
        }
      ],
      "outputs": [
        {
          "name": "",
          "type": "uint256",
          "internalType": "uint256"
        }
      ],
      "stateMutability": "view"
    },
    {
      "type": "function",
      "name": "previewRedeem",
      "inputs": [
        {
          "name": "shares",
          "type": "uint256",
          "internalType": "uint256"
        }
      ],
      "outputs": [
        {
          "name": "",
          "type": "uint256",
          "internalType": "uint256"
        }
      ],
      "stateMutability": "view"
    },
    {
      "type": "function",
      "name": "previewWithdraw",
      "inputs": [
        {
          "name": "assets",
          "type": "uint256",
          "internalType": "uint256"
        }
      ],
      "outputs": [
        {
          "name": "",
          "type": "uint256",
          "internalType": "uint256"
        }
      ],
      "stateMutability": "view"
    },
    {
      "type": "function",
      "name": "protocolConfigAddress",
      "inputs": [],
      "outputs": [
        {
          "name": "",
          "type": "address",
          "internalType": "address"
        }
      ],
      "stateMutability": "view"
    },
    {
      "type": "function",
      "name": "protocolFeeReceiver",
      "inputs": [],
      "outputs": [
        {
          "name": "",
          "type": "address",
          "internalType": "address"
        }
      ],
      "stateMutability": "view"
    },
    {
      "type": "function",
      "name": "protocolFeeShare",
      "inputs": [],
      "outputs": [
        {
          "name": "",
          "type": "uint256",
          "internalType": "uint256"
        }
      ],
      "stateMutability": "view"
    },
    {
      "type": "function",
      "name": "pullDebt",
      "inputs": [
        {
          "name": "amount",
          "type": "uint256",
          "internalType": "uint256"
        },
        {
          "name": "from",
          "type": "address",
          "internalType": "address"
        }
      ],
      "outputs": [],
      "stateMutability": "nonpayable"
    },
    {
      "type": "function",
      "name": "redeem",
      "inputs": [
        {
          "name": "amount",
          "type": "uint256",
          "internalType": "uint256"
        },
        {
          "name": "receiver",
          "type": "address",
          "internalType": "address"
        },
        {
          "name": "owner",
          "type": "address",
          "internalType": "address"
        }
      ],
      "outputs": [
        {
          "name": "",
          "type": "uint256",
          "internalType": "uint256"
        }
      ],
      "stateMutability": "nonpayable"
    },
    {
      "type": "function",
      "name": "repay",
      "inputs": [
        {
          "name": "amount",
          "type": "uint256",
          "internalType": "uint256"
        },
        {
          "name": "receiver",
          "type": "address",
          "internalType": "address"
        }
      ],
      "outputs": [
        {
          "name": "",
          "type": "uint256",
          "internalType": "uint256"
        }
      ],
      "stateMutability": "nonpayable"
    },
    {
      "type": "function",
      "name": "repayWithShares",
      "inputs": [
        {
          "name": "amount",
          "type": "uint256",
          "internalType": "uint256"
        },
        {
          "name": "receiver",
          "type": "address",
          "internalType": "address"
        }
      ],
      "outputs": [
        {
          "name": "shares",
          "type": "uint256",
          "internalType": "uint256"
        },
        {
          "name": "debt",
          "type": "uint256",
          "internalType": "uint256"
        }
      ],
      "stateMutability": "nonpayable"
    },
    {
      "type": "function",
      "name": "setCaps",
      "inputs": [
        {
          "name": "supplyCap",
          "type": "uint16",
          "internalType": "uint16"
        },
        {
          "name": "borrowCap",
          "type": "uint16",
          "internalType": "uint16"
        }
      ],
      "outputs": [],
      "stateMutability": "nonpayable"
    },
    {
      "type": "function",
      "name": "setConfigFlags",
      "inputs": [
        {
          "name": "newConfigFlags",
          "type": "uint32",
          "internalType": "uint32"
        }
      ],
      "outputs": [],
      "stateMutability": "nonpayable"
    },
    {
      "type": "function",
      "name": "setFeeReceiver",
      "inputs": [
        {
          "name": "newFeeReceiver",
          "type": "address",
          "internalType": "address"
        }
      ],
      "outputs": [],
      "stateMutability": "nonpayable"
    },
    {
      "type": "function",
      "name": "setGovernorAdmin",
      "inputs": [
        {
          "name": "newGovernorAdmin",
          "type": "address",
          "internalType": "address"
        }
      ],
      "outputs": [],
      "stateMutability": "nonpayable"
    },
    {
      "type": "function",
      "name": "setHookConfig",
      "inputs": [
        {
          "name": "newHookTarget",
          "type": "address",
          "internalType": "address"
        },
        {
          "name": "newHookedOps",
          "type": "uint32",
          "internalType": "uint32"
        }
      ],
      "outputs": [],
      "stateMutability": "nonpayable"
    },
    {
      "type": "function",
      "name": "setInterestFee",
      "inputs": [
        {
          "name": "newFee",
          "type": "uint16",
          "internalType": "uint16"
        }
      ],
      "outputs": [],
      "stateMutability": "nonpayable"
    },
    {
      "type": "function",
      "name": "setInterestRateModel",
      "inputs": [
        {
          "name": "newModel",
          "type": "address",
          "internalType": "address"
        }
      ],
      "outputs": [],
      "stateMutability": "nonpayable"
    },
    {
      "type": "function",
      "name": "setLTV",
      "inputs": [
        {
          "name": "collateral",
          "type": "address",
          "internalType": "address"
        },
        {
          "name": "borrowLTV",
          "type": "uint16",
          "internalType": "uint16"
        },
        {
          "name": "liquidationLTV",
          "type": "uint16",
          "internalType": "uint16"
        },
        {
          "name": "rampDuration",
          "type": "uint32",
          "internalType": "uint32"
        }
      ],
      "outputs": [],
      "stateMutability": "nonpayable"
    },
    {
      "type": "function",
      "name": "setLiquidationCoolOffTime",
      "inputs": [
        {
          "name": "newCoolOffTime",
          "type": "uint16",
          "internalType": "uint16"
        }
      ],
      "outputs": [],
      "stateMutability": "nonpayable"
    },
    {
      "type": "function",
      "name": "setMaxLiquidationDiscount",
      "inputs": [
        {
          "name": "newDiscount",
          "type": "uint16",
          "internalType": "uint16"
        }
      ],
      "outputs": [],
      "stateMutability": "nonpayable"
    },
    {
      "type": "function",
      "name": "skim",
      "inputs": [
        {
          "name": "amount",
          "type": "uint256",
          "internalType": "uint256"
        },
        {
          "name": "receiver",
          "type": "address",
          "internalType": "address"
        }
      ],
      "outputs": [
        {
          "name": "",
          "type": "uint256",
          "internalType": "uint256"
        }
      ],
      "stateMutability": "nonpayable"
    },
    {
      "type": "function",
      "name": "symbol",
      "inputs": [],
      "outputs": [
        {
          "name": "",
          "type": "string",
          "internalType": "string"
        }
      ],
      "stateMutability": "view"
    },
    {
      "type": "function",
      "name": "totalAssets",
      "inputs": [],
      "outputs": [
        {
          "name": "",
          "type": "uint256",
          "internalType": "uint256"
        }
      ],
      "stateMutability": "view"
    },
    {
      "type": "function",
      "name": "totalBorrows",
      "inputs": [],
      "outputs": [
        {
          "name": "",
          "type": "uint256",
          "internalType": "uint256"
        }
      ],
      "stateMutability": "view"
    },
    {
      "type": "function",
      "name": "totalBorrowsExact",
      "inputs": [],
      "outputs": [
        {
          "name": "",
          "type": "uint256",
          "internalType": "uint256"
        }
      ],
      "stateMutability": "view"
    },
    {
      "type": "function",
      "name": "totalSupply",
      "inputs": [],
      "outputs": [
        {
          "name": "",
          "type": "uint256",
          "internalType": "uint256"
        }
      ],
      "stateMutability": "view"
    },
    {
      "type": "function",
      "name": "touch",
      "inputs": [],
      "outputs": [],
      "stateMutability": "nonpayable"
    },
    {
      "type": "function",
      "name": "transfer",
      "inputs": [
        {
          "name": "to",
          "type": "address",
          "internalType": "address"
        },
        {
          "name": "amount",
          "type": "uint256",
          "internalType": "uint256"
        }
      ],
      "outputs": [
        {
          "name": "",
          "type": "bool",
          "internalType": "bool"
        }
      ],
      "stateMutability": "nonpayable"
    },
    {
      "type": "function",
      "name": "transferFrom",
      "inputs": [
        {
          "name": "from",
          "type": "address",
          "internalType": "address"
        },
        {
          "name": "to",
          "type": "address",
          "internalType": "address"
        },
        {
          "name": "amount",
          "type": "uint256",
          "internalType": "uint256"
        }
      ],
      "outputs": [
        {
          "name": "",
          "type": "bool",
          "internalType": "bool"
        }
      ],
      "stateMutability": "nonpayable"
    },
    {
      "type": "function",
      "name": "transferFromMax",
      "inputs": [
        {
          "name": "from",
          "type": "address",
          "internalType": "address"
        },
        {
          "name": "to",
          "type": "address",
          "internalType": "address"
        }
      ],
      "outputs": [
        {
          "name": "",
          "type": "bool",
          "internalType": "bool"
        }
      ],
      "stateMutability": "nonpayable"
    },
    {
      "type": "function",
      "name": "unitOfAccount",
      "inputs": [],
      "outputs": [
        {
          "name": "",
          "type": "address",
          "internalType": "address"
        }
      ],
      "stateMutability": "view"
    },
    {
      "type": "function",
      "name": "viewDelegate",
      "inputs": [],
      "outputs": [],
      "stateMutability": "payable"
    },
    {
      "type": "function",
      "name": "withdraw",
      "inputs": [
        {
          "name": "amount",
          "type": "uint256",
          "internalType": "uint256"
        },
        {
          "name": "receiver",
          "type": "address",
          "internalType": "address"
        },
        {
          "name": "owner",
          "type": "address",
          "internalType": "address"
        }
      ],
      "outputs": [
        {
          "name": "",
          "type": "uint256",
          "internalType": "uint256"
        }
      ],
      "stateMutability": "nonpayable"
    },
    {
      "type": "event",
      "name": "Approval",
      "inputs": [
        {
          "name": "owner",
          "type": "address",
          "indexed": true,
          "internalType": "address"
        },
        {
          "name": "spender",
          "type": "address",
          "indexed": true,
          "internalType": "address"
        },
        {
          "name": "value",
          "type": "uint256",
          "indexed": false,
          "internalType": "uint256"
        }
      ],
      "anonymous": false
    },
    {
      "type": "event",
      "name": "BalanceForwarderStatus",
      "inputs": [
        {
          "name": "account",
          "type": "address",
          "indexed": true,
          "internalType": "address"
        },
        {
          "name": "status",
          "type": "bool",
          "indexed": false,
          "internalType": "bool"
        }
      ],
      "anonymous": false
    },
    {
      "type": "event",
      "name": "Borrow",
      "inputs": [
        {
          "name": "account",
          "type": "address",
          "indexed": true,
          "internalType": "address"
        },
        {
          "name": "assets",
          "type": "uint256",
          "indexed": false,
          "internalType": "uint256"
        }
      ],
      "anonymous": false
    },
    {
      "type": "event",
      "name": "ConvertFees",
      "inputs": [
        {
          "name": "sender",
          "type": "address",
          "indexed": true,
          "internalType": "address"
        },
        {
          "name": "protocolReceiver",
          "type": "address",
          "indexed": true,
          "internalType": "address"
        },
        {
          "name": "governorReceiver",
          "type": "address",
          "indexed": true,
          "internalType": "address"
        },
        {
          "name": "protocolShares",
          "type": "uint256",
          "indexed": false,
          "internalType": "uint256"
        },
        {
          "name": "governorShares",
          "type": "uint256",
          "indexed": false,
          "internalType": "uint256"
        }
      ],
      "anonymous": false
    },
    {
      "type": "event",
      "name": "DebtSocialized",
      "inputs": [
        {
          "name": "account",
          "type": "address",
          "indexed": true,
          "internalType": "address"
        },
        {
          "name": "assets",
          "type": "uint256",
          "indexed": false,
          "internalType": "uint256"
        }
      ],
      "anonymous": false
    },
    {
      "type": "event",
      "name": "Deposit",
      "inputs": [
        {
          "name": "sender",
          "type": "address",
          "indexed": true,
          "internalType": "address"
        },
        {
          "name": "owner",
          "type": "address",
          "indexed": true,
          "internalType": "address"
        },
        {
          "name": "assets",
          "type": "uint256",
          "indexed": false,
          "internalType": "uint256"
        },
        {
          "name": "shares",
          "type": "uint256",
          "indexed": false,
          "internalType": "uint256"
        }
      ],
      "anonymous": false
    },
    {
      "type": "event",
      "name": "EVaultCreated",
      "inputs": [
        {
          "name": "creator",
          "type": "address",
          "indexed": true,
          "internalType": "address"
        },
        {
          "name": "asset",
          "type": "address",
          "indexed": true,
          "internalType": "address"
        },
        {
          "name": "dToken",
          "type": "address",
          "indexed": false,
          "internalType": "address"
        }
      ],
      "anonymous": false
    },
    {
      "type": "event",
      "name": "GovSetCaps",
      "inputs": [
        {
          "name": "newSupplyCap",
          "type": "uint16",
          "indexed": false,
          "internalType": "uint16"
        },
        {
          "name": "newBorrowCap",
          "type": "uint16",
          "indexed": false,
          "internalType": "uint16"
        }
      ],
      "anonymous": false
    },
    {
      "type": "event",
      "name": "GovSetConfigFlags",
      "inputs": [
        {
          "name": "newConfigFlags",
          "type": "uint32",
          "indexed": false,
          "internalType": "uint32"
        }
      ],
      "anonymous": false
    },
    {
      "type": "event",
      "name": "GovSetFeeReceiver",
      "inputs": [
        {
          "name": "newFeeReceiver",
          "type": "address",
          "indexed": true,
          "internalType": "address"
        }
      ],
      "anonymous": false
    },
    {
      "type": "event",
      "name": "GovSetGovernorAdmin",
      "inputs": [
        {
          "name": "newGovernorAdmin",
          "type": "address",
          "indexed": true,
          "internalType": "address"
        }
      ],
      "anonymous": false
    },
    {
      "type": "event",
      "name": "GovSetHookConfig",
      "inputs": [
        {
          "name": "newHookTarget",
          "type": "address",
          "indexed": true,
          "internalType": "address"
        },
        {
          "name": "newHookedOps",
          "type": "uint32",
          "indexed": false,
          "internalType": "uint32"
        }
      ],
      "anonymous": false
    },
    {
      "type": "event",
      "name": "GovSetInterestFee",
      "inputs": [
        {
          "name": "newFee",
          "type": "uint16",
          "indexed": false,
          "internalType": "uint16"
        }
      ],
      "anonymous": false
    },
    {
      "type": "event",
      "name": "GovSetInterestRateModel",
      "inputs": [
        {
          "name": "newInterestRateModel",
          "type": "address",
          "indexed": false,
          "internalType": "address"
        }
      ],
      "anonymous": false
    },
    {
      "type": "event",
      "name": "GovSetLTV",
      "inputs": [
        {
          "name": "collateral",
          "type": "address",
          "indexed": true,
          "internalType": "address"
        },
        {
          "name": "borrowLTV",
          "type": "uint16",
          "indexed": false,
          "internalType": "uint16"
        },
        {
          "name": "liquidationLTV",
          "type": "uint16",
          "indexed": false,
          "internalType": "uint16"
        },
        {
          "name": "initialLiquidationLTV",
          "type": "uint16",
          "indexed": false,
          "internalType": "uint16"
        },
        {
          "name": "targetTimestamp",
          "type": "uint48",
          "indexed": false,
          "internalType": "uint48"
        },
        {
          "name": "rampDuration",
          "type": "uint32",
          "indexed": false,
          "internalType": "uint32"
        }
      ],
      "anonymous": false
    },
    {
      "type": "event",
      "name": "GovSetLiquidationCoolOffTime",
      "inputs": [
        {
          "name": "newCoolOffTime",
          "type": "uint16",
          "indexed": false,
          "internalType": "uint16"
        }
      ],
      "anonymous": false
    },
    {
      "type": "event",
      "name": "GovSetMaxLiquidationDiscount",
      "inputs": [
        {
          "name": "newDiscount",
          "type": "uint16",
          "indexed": false,
          "internalType": "uint16"
        }
      ],
      "anonymous": false
    },
    {
      "type": "event",
      "name": "InterestAccrued",
      "inputs": [
        {
          "name": "account",
          "type": "address",
          "indexed": true,
          "internalType": "address"
        },
        {
          "name": "assets",
          "type": "uint256",
          "indexed": false,
          "internalType": "uint256"
        }
      ],
      "anonymous": false
    },
    {
      "type": "event",
      "name": "Liquidate",
      "inputs": [
        {
          "name": "liquidator",
          "type": "address",
          "indexed": true,
          "internalType": "address"
        },
        {
          "name": "violator",
          "type": "address",
          "indexed": true,
          "internalType": "address"
        },
        {
          "name": "collateral",
          "type": "address",
          "indexed": false,
          "internalType": "address"
        },
        {
          "name": "repayAssets",
          "type": "uint256",
          "indexed": false,
          "internalType": "uint256"
        },
        {
          "name": "yieldBalance",
          "type": "uint256",
          "indexed": false,
          "internalType": "uint256"
        }
      ],
      "anonymous": false
    },
    {
      "type": "event",
      "name": "PullDebt",
      "inputs": [
        {
          "name": "from",
          "type": "address",
          "indexed": true,
          "internalType": "address"
        },
        {
          "name": "to",
          "type": "address",
          "indexed": true,
          "internalType": "address"
        },
        {
          "name": "assets",
          "type": "uint256",
          "indexed": false,
          "internalType": "uint256"
        }
      ],
      "anonymous": false
    },
    {
      "type": "event",
      "name": "Repay",
      "inputs": [
        {
          "name": "account",
          "type": "address",
          "indexed": true,
          "internalType": "address"
        },
        {
          "name": "assets",
          "type": "uint256",
          "indexed": false,
          "internalType": "uint256"
        }
      ],
      "anonymous": false
    },
    {
      "type": "event",
      "name": "Transfer",
      "inputs": [
        {
          "name": "from",
          "type": "address",
          "indexed": true,
          "internalType": "address"
        },
        {
          "name": "to",
          "type": "address",
          "indexed": true,
          "internalType": "address"
        },
        {
          "name": "value",
          "type": "uint256",
          "indexed": false,
          "internalType": "uint256"
        }
      ],
      "anonymous": false
    },
    {
      "type": "event",
      "name": "VaultStatus",
      "inputs": [
        {
          "name": "totalShares",
          "type": "uint256",
          "indexed": false,
          "internalType": "uint256"
        },
        {
          "name": "totalBorrows",
          "type": "uint256",
          "indexed": false,
          "internalType": "uint256"
        },
        {
          "name": "accumulatedFees",
          "type": "uint256",
          "indexed": false,
          "internalType": "uint256"
        },
        {
          "name": "cash",
          "type": "uint256",
          "indexed": false,
          "internalType": "uint256"
        },
        {
          "name": "interestAccumulator",
          "type": "uint256",
          "indexed": false,
          "internalType": "uint256"
        },
        {
          "name": "interestRate",
          "type": "uint256",
          "indexed": false,
          "internalType": "uint256"
        },
        {
          "name": "timestamp",
          "type": "uint256",
          "indexed": false,
          "internalType": "uint256"
        }
      ],
      "anonymous": false
    },
    {
      "type": "event",
      "name": "Withdraw",
      "inputs": [
        {
          "name": "sender",
          "type": "address",
          "indexed": true,
          "internalType": "address"
        },
        {
          "name": "receiver",
          "type": "address",
          "indexed": true,
          "internalType": "address"
        },
        {
          "name": "owner",
          "type": "address",
          "indexed": true,
          "internalType": "address"
        },
        {
          "name": "assets",
          "type": "uint256",
          "indexed": false,
          "internalType": "uint256"
        },
        {
          "name": "shares",
          "type": "uint256",
          "indexed": false,
          "internalType": "uint256"
        }
      ],
      "anonymous": false
    },
    {
      "type": "error",
      "name": "E_AccountLiquidity",
      "inputs": []
    },
    {
      "type": "error",
      "name": "E_AmountTooLargeToEncode",
      "inputs": []
    },
    {
      "type": "error",
      "name": "E_BadAddress",
      "inputs": []
    },
    {
      "type": "error",
      "name": "E_BadAssetReceiver",
      "inputs": []
    },
    {
      "type": "error",
      "name": "E_BadBorrowCap",
      "inputs": []
    },
    {
      "type": "error",
      "name": "E_BadCollateral",
      "inputs": []
    },
    {
      "type": "error",
      "name": "E_BadFee",
      "inputs": []
    },
    {
      "type": "error",
      "name": "E_BadMaxLiquidationDiscount",
      "inputs": []
    },
    {
      "type": "error",
      "name": "E_BadSharesOwner",
      "inputs": []
    },
    {
      "type": "error",
      "name": "E_BadSharesReceiver",
      "inputs": []
    },
    {
      "type": "error",
      "name": "E_BadSupplyCap",
      "inputs": []
    },
    {
      "type": "error",
      "name": "E_BorrowCapExceeded",
      "inputs": []
    },
    {
      "type": "error",
      "name": "E_CheckUnauthorized",
      "inputs": []
    },
    {
      "type": "error",
      "name": "E_CollateralDisabled",
      "inputs": []
    },
    {
      "type": "error",
      "name": "E_ConfigAmountTooLargeToEncode",
      "inputs": []
    },
    {
      "type": "error",
      "name": "E_ControllerDisabled",
      "inputs": []
    },
    {
      "type": "error",
      "name": "E_DebtAmountTooLargeToEncode",
      "inputs": []
    },
    {
      "type": "error",
      "name": "E_EmptyError",
      "inputs": []
    },
    {
      "type": "error",
      "name": "E_ExcessiveRepayAmount",
      "inputs": []
    },
    {
      "type": "error",
      "name": "E_FlashLoanNotRepaid",
      "inputs": []
    },
    {
      "type": "error",
      "name": "E_Initialized",
      "inputs": []
    },
    {
      "type": "error",
      "name": "E_InsufficientAllowance",
      "inputs": []
    },
    {
      "type": "error",
      "name": "E_InsufficientAssets",
      "inputs": []
    },
    {
      "type": "error",
      "name": "E_InsufficientBalance",
      "inputs": []
    },
    {
      "type": "error",
      "name": "E_InsufficientCash",
      "inputs": []
    },
    {
      "type": "error",
      "name": "E_InsufficientDebt",
      "inputs": []
    },
    {
      "type": "error",
      "name": "E_InvalidLTVAsset",
      "inputs": []
    },
    {
      "type": "error",
      "name": "E_LTVBorrow",
      "inputs": []
    },
    {
      "type": "error",
      "name": "E_LTVLiquidation",
      "inputs": []
    },
    {
      "type": "error",
      "name": "E_LiquidationCoolOff",
      "inputs": []
    },
    {
      "type": "error",
      "name": "E_MinYield",
      "inputs": []
    },
    {
      "type": "error",
      "name": "E_NoLiability",
      "inputs": []
    },
    {
      "type": "error",
      "name": "E_NoPriceOracle",
      "inputs": []
    },
    {
      "type": "error",
      "name": "E_NotController",
      "inputs": []
    },
    {
      "type": "error",
      "name": "E_NotHookTarget",
      "inputs": []
    },
    {
      "type": "error",
      "name": "E_NotSupported",
      "inputs": []
    },
    {
      "type": "error",
      "name": "E_OperationDisabled",
      "inputs": []
    },
    {
      "type": "error",
      "name": "E_OutstandingDebt",
      "inputs": []
    },
    {
      "type": "error",
      "name": "E_ProxyMetadata",
      "inputs": []
    },
    {
      "type": "error",
      "name": "E_Reentrancy",
      "inputs": []
    },
    {
      "type": "error",
      "name": "E_RepayTooMuch",
      "inputs": []
    },
    {
      "type": "error",
      "name": "E_SelfLiquidation",
      "inputs": []
    },
    {
      "type": "error",
      "name": "E_SelfTransfer",
      "inputs": []
    },
    {
      "type": "error",
      "name": "E_SupplyCapExceeded",
      "inputs": []
    },
    {
      "type": "error",
      "name": "E_TransientState",
      "inputs": []
    },
    {
      "type": "error",
      "name": "E_Unauthorized",
      "inputs": []
    },
    {
      "type": "error",
      "name": "E_ViolatorLiquidityDeferred",
      "inputs": []
    },
    {
      "type": "error",
      "name": "E_ZeroAssets",
      "inputs": []
    },
    {
      "type": "error",
      "name": "E_ZeroShares",
      "inputs": []
    }
  ],
  "bytecode": {
    "object": "0x61022060405234801562000011575f80fd5b506040516200601338038062006013833981016040819052620000349162000250565b815182908290829062000047816200019f565b6001600160a01b031660805250602081015162000064906200019f565b6001600160a01b031660a052604081015162000080906200019f565b6001600160a01b0390811660c0526060820151811660e05260809091015116610100525f805460ff191660011790558051620000bc906200019f565b6001600160a01b0316610120526020810151620000d9906200019f565b6001600160a01b0316610140526040810151620000f6906200019f565b6001600160a01b031661016052606081015162000113906200019f565b6001600160a01b031661018052608081015162000130906200019f565b6001600160a01b03166101a05260a08101516200014d906200019f565b6001600160a01b03166101c05260c08101516200016a906200019f565b6001600160a01b03166101e05260e081015162000187906200019f565b6001600160a01b031661020052506200039b92505050565b5f816001600160a01b03163b5f03620001cb576040516306e1f36760e31b815260040160405180910390fd5b5090565b60405160a081016001600160401b0381118282101715620001fe57634e487b7160e01b5f52604160045260245ffd5b60405290565b60405161010081016001600160401b0381118282101715620001fe57634e487b7160e01b5f52604160045260245ffd5b80516001600160a01b03811681146200024b575f80fd5b919050565b5f808284036101a081121562000264575f80fd5b60a081121562000272575f80fd5b6200027c620001cf565b620002878562000234565b8152620002976020860162000234565b6020820152620002aa6040860162000234565b6040820152620002bd6060860162000234565b6060820152620002d06080860162000234565b60808201529250610100609f198201811315620002eb575f80fd5b620002f562000204565b91506200030560a0860162000234565b82526200031560c0860162000234565b60208301526200032860e0860162000234565b60408301526200033a81860162000234565b6060830152506200034f610120850162000234565b608082015262000363610140850162000234565b60a082015262000377610160850162000234565b60c08201526200038b610180850162000234565b60e0820152809150509250929050565b60805160a05160c05160e05161010051610120516101405161016051610180516101a0516101c0516101e05161020051615a6b620005a85f395f8181610d300152818161104e01528181611159015281816111c00152818161120a015281816112e7015281816113510152818161137d01528181611689015261185c01525f8181610b2c0152818161123e0152818161189c01526118c701525f8181610acb01528181611422015281816114ea01526117e201525f81816108f60152818161144e015261177201525f818161071a01528181610fb4015281816112af01528181611318015281816114be015281816115aa015281816115ea015261165101525f8181610efc01528181610f4901528181610ff1015281816113e5015261170501525f8181610a0601528181610f79015261102201525f8181610c6701526117aa01525f50505f81816144ce015261465901525f50505f50505f81816111160152818161119801528181611287015281816113bd01528181611496015281816115320152818161158201528181611629015281816116dd0152818161174a0152818161182a01528181611c6001528181611e2c01528181611e56015281816120f9015281816125380152818161256201528181612cd701528181612d2e01528181613f3b01528181613f6c0152818161410c015281816141c6015281816148b001526150ba0152615a6b5ff3fe608060405260043610610603575f3560e01c806394bf804d11610311578063bf58094d1161019c578063d87f780f116100e7578063e388be7b11610092578063efdcd9741161006d578063efdcd97414610aed578063f3fdb15a146108a3578063f6e50f5814610f32575f80fd5b8063e388be7b146106a7578063ece6a7fa14610f1e578063ef8b30f7146106ea575f80fd5b8063dd62ed3e116100c2578063dd62ed3e14610ead578063e15c82ec14610ecc578063e2f206e514610eeb575f80fd5b8063d87f780f14610e7f578063d905777e146108b7578063d9d7858a14610e99575f80fd5b8063c7b0e3a311610147578063cf349b7d11610122578063cf349b7d14610dfc578063d1a3a30814610e41578063d283e75f14610e60575f80fd5b8063c7b0e3a314610daf578063cbfdd7e114610ddd578063ce96cb77146108b7575f80fd5b8063c522498311610177578063c5224983146108a3578063c63d75b6146108b7578063c6e6f59214610d90575f80fd5b8063bf58094d14610cc2578063c134257414610d52578063c4d66de814610d71575f80fd5b8063ad80ad0b1161025c578063b3d7f6b911610207578063b460af94116101e2578063b460af9414610d00578063b4cd541b14610d1f578063ba08765214610d00575f80fd5b8063b3d7f6b9146106ea578063b3f00674146108a3578063b4113ba714610a28575f80fd5b8063af06d3cf11610237578063af06d3cf14610a28578063af5aaeeb14610cc2578063b168c58f14610ce1575f80fd5b8063ad80ad0b14610c56578063ada3d56f14610c89578063aebde56b14610ca3575f80fd5b8063a75df498116102bc578063a9c8eb7e11610297578063a9c8eb7e14610c18578063ab49b7f114610c37578063acb7081514610984575f80fd5b8063a75df49814610baa578063a824bf6714610bda578063a9059cbb14610bf9575f80fd5b8063961be391116102ec578063961be391146106a7578063a55526db14610b96578063a70354a1146108a3575f80fd5b806394bf804d14610a6857806395d89b4114610667578063960b26a214610b82575f80fd5b80634b3d1223116104915780636ce98c29116103dc57806382ebd6741161038757806388aa6f121161036257806388aa6f1214610b4e5780638bcd401614610aed5780638d56c63914610a68575f80fd5b806382ebd67414610aed578063869e50c714610b07578063883e387514610b1b575f80fd5b80637c3a00fd116103b75780637c3a00fd14610aa65780637d5f2e4e14610aba5780637dc0d1d0146108a3575f80fd5b80636ce98c29146108a35780636e553f6514610a6857806370a0823114610a87575f80fd5b8063539bd5bf1161043c57806360cb90ef1161041757806360cb90ef14610a2857806364b1cdd6146108d15780636a16ef8414610a47575f80fd5b8063539bd5bf146108a3578063587f5ed7146109e15780635fa23055146109f5575f80fd5b80634cdad5061161046c5780634cdad506146106ea5780634f7e43df146109185780635296a431146109c2575f80fd5b80634b3d12231461093f5780634b3fd148146109845780634bca3d5b146109a3575f80fd5b80632b38a367116105515780633e833364116104fc57806342895567116104d757806342895567146108e557806347bd3718146106a75780634abdb95914610918575f80fd5b80633e833364146108a3578063402d267d146108b757806341233a98146108d1575f80fd5b806333708d0c1161052c57806333708d0c1461080b57806338d52e0f1461086b57806339a51be5146108a3575f80fd5b80632b38a367146107a85780632b5335c3146107d1578063313ce567146107e5575f80fd5b80630a28a477116105b157806318e22d981161058c57806318e22d98146107505780631fe8b9531461077f57806323b872dd14610789575f80fd5b80630a28a477146106ea57806314c054bc1461070957806318160ddd1461073c575f80fd5b806307a2d13a116105e157806307a2d13a14610688578063087a6007146106a7578063095ea7b3146106bb575f80fd5b806301e1d1141461060757806302d05d3f1461062e57806306fdde0314610667575b5f80fd5b348015610612575f80fd5b5061061b610f46565b6040519081526020015b60405180910390f35b348015610639575f80fd5b50610642610f46565b60405173ffffffffffffffffffffffffffffffffffffffff9091168152602001610625565b348015610672575f80fd5b5061067b610f75565b6040516106259190615323565b348015610693575f80fd5b5061061b6106a2366004615373565b610fa1565b3480156106b2575f80fd5b5061061b610fb1565b3480156106c6575f80fd5b506106da6106d53660046153ab565b610fdc565b6040519015158152602001610625565b3480156106f5575f80fd5b5061061b610704366004615373565b610fee565b348015610714575f80fd5b506106427f000000000000000000000000000000000000000000000000000000000000000081565b348015610747575f80fd5b5061061b61101f565b34801561075b575f80fd5b5061076461104a565b6040805161ffff938416815292909116602083015201610625565b61078761107b565b005b348015610794575f80fd5b506106da6107a33660046153d5565b6110fe565b3480156107b3575f80fd5b506107bc611156565b60405163ffffffff9091168152602001610625565b3480156107dc575f80fd5b50610787611181565b3480156107f0575f80fd5b506107f96111f5565b60405160ff9091168152602001610625565b348015610816575f80fd5b5061082a610825366004615413565b611203565b6040805161ffff96871681529486166020860152929094169183019190915265ffffffffffff16606082015263ffffffff909116608082015260a001610625565b348015610876575f80fd5b50367fffffffffffffffffffffffffffffffffffffffffffffffffffffffffffffffc4013560601c610642565b3480156108ae575f80fd5b50610642611156565b3480156108c2575f80fd5b5061061b610704366004615413565b3480156108dc575f80fd5b5061078761123c565b3480156108f0575f80fd5b506106427f000000000000000000000000000000000000000000000000000000000000000081565b348015610923575f80fd5b5061092c611156565b60405161ffff9091168152602001610625565b34801561094a575f80fd5b50610953611266565b6040517fffffffff000000000000000000000000000000000000000000000000000000009091168152602001610625565b34801561098f575f80fd5b5061061b61099e36600461542e565b61126f565b3480156109ae575f80fd5b506107876109bd366004615480565b6112e5565b3480156109cd575f80fd5b506107876109dc3660046154d3565b611316565b3480156109ec575f80fd5b5061061b611346565b348015610a00575f80fd5b506106427f000000000000000000000000000000000000000000000000000000000000000081565b348015610a33575f80fd5b50610787610a42366004615548565b61134f565b348015610a52575f80fd5b50610a5b611379565b60405161062591906155b1565b348015610a73575f80fd5b5061061b610a8236600461542e565b6113a5565b348015610a92575f80fd5b5061061b610aa1366004615413565b61140d565b348015610ab1575f80fd5b5061061b611417565b348015610ac5575f80fd5b506106427f000000000000000000000000000000000000000000000000000000000000000081565b348015610af8575f80fd5b50610787610a42366004615413565b348015610b12575f80fd5b50610787611420565b348015610b26575f80fd5b506106427f000000000000000000000000000000000000000000000000000000000000000081565b348015610b59575f80fd5b50610b6d610b683660046155c3565b61144a565b60408051928352602083019190915201610625565b348015610b8d575f80fd5b5061061b611156565b348015610ba1575f80fd5b5061078761147f565b348015610bb5575f80fd5b5060065474010000000000000000000000000000000000000000900461ffff1661092c565b348015610be5575f80fd5b50610b6d610bf4366004615618565b6114e6565b348015610c04575f80fd5b506106da610c133660046153ab565b61151a565b348015610c23575f80fd5b50610b6d610c3236600461542e565b611569565b348015610c42575f80fd5b5061061b610c51366004615413565b6115e7565b348015610c61575f80fd5b506106427f000000000000000000000000000000000000000000000000000000000000000081565b348015610c94575f80fd5b50610787610a42366004615644565b348015610cae575f80fd5b50610787610cbd36600461542e565b611612565b348015610ccd575f80fd5b5061092c610cdc366004615413565b611686565b348015610cec575f80fd5b50610953610cfb36600461565d565b6116b1565b348015610d0b575f80fd5b5061061b610d1a3660046156cb565b6116c5565b348015610d2a575f80fd5b506106427f000000000000000000000000000000000000000000000000000000000000000081565b348015610d5d575f80fd5b50610787610d6c3660046156ef565b611733565b348015610d7c575f80fd5b50610787610d8b366004615413565b6117a8565b348015610d9b575f80fd5b5061061b610daa366004615373565b6117d2565b348015610dba575f80fd5b50610dce610dc9366004615618565b6117dc565b60405161062593929190615732565b348015610de8575f80fd5b506106da610df7366004615790565b611812565b348015610e07575f80fd5b50610e1061104a565b6040805173ffffffffffffffffffffffffffffffffffffffff909316835263ffffffff909116602083015201610625565b348015610e4c575f80fd5b50610787610e5b3660046157bc565b61185a565b348015610e6b575f80fd5b5061061b610e7a366004615413565b611884565b348015610e8a575f80fd5b50610787610e5b3660046157ef565b348015610ea4575f80fd5b50610642610fb1565b348015610eb8575f80fd5b5061061b610ec7366004615790565b61188e565b348015610ed7575f80fd5b506106da610ee6366004615413565b611899565b348015610ef6575f80fd5b506106427f000000000000000000000000000000000000000000000000000000000000000081565b348015610f29575f80fd5b506106426118c4565b348015610f3d575f80fd5b5061061b6118ef565b5f7f0000000000000000000000000000000000000000000000000000000000000000610f71816118f8565b5090565b60607f0000000000000000000000000000000000000000000000000000000000000000610f71816118f8565b5f610fab82611949565b92915050565b5f7f0000000000000000000000000000000000000000000000000000000000000000610f71816118f8565b5f610fe78383611a6c565b9392505050565b5f7f0000000000000000000000000000000000000000000000000000000000000000611019816118f8565b50919050565b5f7f0000000000000000000000000000000000000000000000000000000000000000610f71816118f8565b5f807f0000000000000000000000000000000000000000000000000000000000000000611076816118f8565b509091565b3330146110b4576040517f08e2ce1700000000000000000000000000000000000000000000000000000000815260040160405180910390fd5b7fffffffffffffffffffffffffffffffffffffffffffffffffffffffffffffffdc36018060245f375f80825f6004355af490503d5f803e8080156110f6573d5ff35b3d5ffd5b5050565b5f73ffffffffffffffffffffffffffffffffffffffff7f000000000000000000000000000000000000000000000000000000000000000016330361114e57611147848484611b5a565b9050610fe7565b610fe7611c5d565b5f7f0000000000000000000000000000000000000000000000000000000000000000610f71816118f8565b73ffffffffffffffffffffffffffffffffffffffff7f00000000000000000000000000000000000000000000000000000000000000001633036111eb577f00000000000000000000000000000000000000000000000000000000000000006111e881611cef565b50565b6111f3611c5d565b565b5f6111fe611d09565b905090565b5f805f805f7f0000000000000000000000000000000000000000000000000000000000000000611232816118f8565b5091939590929450565b7f00000000000000000000000000000000000000000000000000000000000000006111e881611cef565b5f6111fe611e13565b5f73ffffffffffffffffffffffffffffffffffffffff7f00000000000000000000000000000000000000000000000000000000000000001633036112dd577f00000000000000000000000000000000000000000000000000000000000000006112d781611cef565b50610fab565b610fab611c5d565b7f000000000000000000000000000000000000000000000000000000000000000061130f81611cef565b5050505050565b7f000000000000000000000000000000000000000000000000000000000000000061134081611cef565b50505050565b5f6111fe612145565b7f00000000000000000000000000000000000000000000000000000000000000006110fa81611cef565b60607f0000000000000000000000000000000000000000000000000000000000000000610f71816118f8565b5f73ffffffffffffffffffffffffffffffffffffffff7f00000000000000000000000000000000000000000000000000000000000000001633036112dd577f00000000000000000000000000000000000000000000000000000000000000006112d781611cef565b5f610fab8261223d565b5f6111fe612344565b7f00000000000000000000000000000000000000000000000000000000000000006111e881611cef565b5f807f0000000000000000000000000000000000000000000000000000000000000000611476816118f8565b50935093915050565b73ffffffffffffffffffffffffffffffffffffffff7f00000000000000000000000000000000000000000000000000000000000000001633036111eb577f00000000000000000000000000000000000000000000000000000000000000006111e881611cef565b5f807f0000000000000000000000000000000000000000000000000000000000000000611512816118f8565b509250929050565b5f73ffffffffffffffffffffffffffffffffffffffff7f00000000000000000000000000000000000000000000000000000000000000001633036112dd57611562838361242a565b9050610fab565b5f8073ffffffffffffffffffffffffffffffffffffffff7f00000000000000000000000000000000000000000000000000000000000000001633036115d8577f00000000000000000000000000000000000000000000000000000000000000006115d281611cef565b506115e0565b6115e0611c5d565b9250929050565b5f7f0000000000000000000000000000000000000000000000000000000000000000611019816118f8565b73ffffffffffffffffffffffffffffffffffffffff7f000000000000000000000000000000000000000000000000000000000000000016330361167e577f000000000000000000000000000000000000000000000000000000000000000061167981611cef565b505050565b6110fa611c5d565b5f7f0000000000000000000000000000000000000000000000000000000000000000611019816118f8565b5f6116bd84848461251f565b949350505050565b5f73ffffffffffffffffffffffffffffffffffffffff7f000000000000000000000000000000000000000000000000000000000000000016330361114e577f000000000000000000000000000000000000000000000000000000000000000061172d81611cef565b50610fe7565b73ffffffffffffffffffffffffffffffffffffffff7f00000000000000000000000000000000000000000000000000000000000000001633036117a0577f000000000000000000000000000000000000000000000000000000000000000061179a81611cef565b50611340565b611340611c5d565b7f00000000000000000000000000000000000000000000000000000000000000006110fa81611cef565b5f610fab82612693565b6060805f7f000000000000000000000000000000000000000000000000000000000000000061180a816118f8565b509250925092565b5f73ffffffffffffffffffffffffffffffffffffffff7f00000000000000000000000000000000000000000000000000000000000000001633036112dd57611562838361279a565b7f000000000000000000000000000000000000000000000000000000000000000061167981611cef565b5f610fab82612890565b5f610fe78383612996565b5f7f0000000000000000000000000000000000000000000000000000000000000000611019816118f8565b5f7f0000000000000000000000000000000000000000000000000000000000000000610f71816118f8565b5f6111fe612aa8565b7f1fe8b953000000000000000000000000000000000000000000000000000000005f526040360333816018015281600452805f6024375f80603883015f305afa90503d5f803e8080156110f6573d5ff35b6002545f907c0100000000000000000000000000000000000000000000000000000000900460ff1615611a1f57600c5473ffffffffffffffffffffffffffffffffffffffff163381148015906119e6575033301480156119e457507fffffffffffffffffffffffffffffffffffffffffffffffffffffffffffffffac36013560601c73ffffffffffffffffffffffffffffffffffffffff8216145b155b15611a1d576040517f74f3606300000000000000000000000000000000000000000000000000000000815260040160405180910390fd5b505b5f611a28612bb9565b9050611a63611a5082611a3a86612c32565b6dffffffffffffffffffffffffffff1690612c7b565b6dffffffffffffffffffffffffffff1690565b9150505b919050565b6002545f907c0100000000000000000000000000000000000000000000000000000000900460ff1615611acb576040517f74f3606300000000000000000000000000000000000000000000000000000000815260040160405180910390fd5b600280547fffffff00ffffffffffffffffffffffffffffffffffffffffffffffffffffffff167c01000000000000000000000000000000000000000000000000000000001790555f611b1b612cbf565b9050611b28818585612db7565b5050600280547fffffff00ffffffffffffffffffffffffffffffffffffffffffffffffffffffff169055506001919050565b6002545f907c0100000000000000000000000000000000000000000000000000000000900460ff1615611bb9576040517f74f3606300000000000000000000000000000000000000000000000000000000815260040160405180910390fd5b600280547fffffff00ffffffffffffffffffffffffffffffffffffffffffffffffffffffff167c0100000000000000000000000000000000000000000000000000000000179055611c0984612e61565b5f611c15601086612ed1565b915050611c2c818686611c2787612c32565b613118565b600280547fffffff00ffffffffffffffffffffffffffffffffffffffffffffffffffffffff16905595945050505050565b5f7f00000000000000000000000000000000000000000000000000000000000000009050604036037f1f8b5215000000000000000000000000000000000000000000000000000000005f52306004523360245234604452608060645280608452805f60a4375f8160a401525f80601f19601f84011660a4015f34865af190503d5f803e8080156110f65760403d036040f35b365f80375f80365f845af43d5f803e8080156110f6573d5ff35b60408051600481526024810182526020810180517bffffffffffffffffffffffffffffffffffffffffffffffffffffffff167f313ce5670000000000000000000000000000000000000000000000000000000017905290515f91367fffffffffffffffffffffffffffffffffffffffffffffffffffffffffffffffc4013560601c91839182918491611d9a91615817565b5f60405180830381855afa9150503d805f8114611dd2576040519150601f19603f3d011682016040523d82523d5f602084013e611dd7565b606091505b5091509150818015611deb57506020815110155b611df6576012611e0a565b80806020019051810190611e0a9190615832565b93505050505b90565b5f3373ffffffffffffffffffffffffffffffffffffffff7f000000000000000000000000000000000000000000000000000000000000000016141580611ee357507f000000000000000000000000000000000000000000000000000000000000000073ffffffffffffffffffffffffffffffffffffffff1663e21e537c6040518163ffffffff1660e01b8152600401602060405180830381865afa158015611ebd573d5f803e3d5ffd5b505050506040513d601f19601f82011682018060405250810190611ee19190615852565b155b15611f1a576040517ff0991feb00000000000000000000000000000000000000000000000000000000815260040160405180910390fd5b5f611f2361319f565b90505f611f2f826132dd565b9050611f3b8282613522565b816101a00151156120eb575f6101a08301819052600280547fffff00ffffffffffffffffffffffffffffffffffffffffffffffffffffffffff1690556001546dffffffffffffffffffffffffffff808216926e01000000000000000000000000000090920416908190505f611fca611a508760a0015171ffffffffffffffffffffffffffffffffffff166135e9565b905085610140015181118015611fdf57508181115b15612016576040517f6ef90ef100000000000000000000000000000000000000000000000000000000815260040160405180910390fd5b5f612031836dffffffffffffffffffffffffffff871661589a565b90505f612058611a508960a0015171ffffffffffffffffffffffffffffffffffff16613631565b60808901516dffffffffffffffffffffffffffff16612077919061589a565b90508761012001518111801561208c57508181115b156120c3576040517f426073f200000000000000000000000000000000000000000000000000000000815260040160405180910390fd5b7c01000000000000000000000000000000000000000000000000000000006001555050505050505b61211d8261016001516140007f0000000000000000000000000000000000000000000000000000000000000000613672565b507f4b3d12230000000000000000000000000000000000000000000000000000000092915050565b6002545f907c0100000000000000000000000000000000000000000000000000000000900460ff161561221b57600c5473ffffffffffffffffffffffffffffffffffffffff163381148015906121e2575033301480156121e057507fffffffffffffffffffffffffffffffffffffffffffffffffffffffffffffffac36013560601c73ffffffffffffffffffffffffffffffffffffffff8216145b155b15612219576040517f74f3606300000000000000000000000000000000000000000000000000000000815260040160405180910390fd5b505b6111fe612226612bb9565b60e001516dffffffffffffffffffffffffffff1690565b6002545f907c0100000000000000000000000000000000000000000000000000000000900460ff161561231357600c5473ffffffffffffffffffffffffffffffffffffffff163381148015906122da575033301480156122d857507fffffffffffffffffffffffffffffffffffffffffffffffffffffffffffffffac36013560601c73ffffffffffffffffffffffffffffffffffffffff8216145b155b15612311576040517f74f3606300000000000000000000000000000000000000000000000000000000815260040160405180910390fd5b505b73ffffffffffffffffffffffffffffffffffffffff82165f908152600d60205260409020610fab90611a5090613699565b6002545f907c0100000000000000000000000000000000000000000000000000000000900460ff161561241a57600c5473ffffffffffffffffffffffffffffffffffffffff163381148015906123e1575033301480156123df57507fffffffffffffffffffffffffffffffffffffffffffffffffffffffffffffffac36013560601c73ffffffffffffffffffffffffffffffffffffffff8216145b155b15612418576040517f74f3606300000000000000000000000000000000000000000000000000000000815260040160405180910390fd5b505b6111fe612425612bb9565b6136b2565b6002545f907c0100000000000000000000000000000000000000000000000000000000900460ff1615612489576040517f74f3606300000000000000000000000000000000000000000000000000000000815260040160405180910390fd5b600280547fffffff00ffffffffffffffffffffffffffffffffffffffffffffffffffffffff167c01000000000000000000000000000000000000000000000000000000001790555f6124dd60106001612ed1565b9150506124ef818286611c2787612c32565b600280547fffffff00ffffffffffffffffffffffffffffffffffffffffffffffffffffffff169055949350505050565b5f3373ffffffffffffffffffffffffffffffffffffffff7f0000000000000000000000000000000000000000000000000000000000000000161415806125ef57507f000000000000000000000000000000000000000000000000000000000000000073ffffffffffffffffffffffffffffffffffffffff1663e21e537c6040518163ffffffff1660e01b8152600401602060405180830381865afa1580156125c9573d5f803e3d5ffd5b505050506040513d601f19601f820116820180604052508101906125ed9190615852565b155b15612626576040517ff0991feb00000000000000000000000000000000000000000000000000000000815260040160405180910390fd5b61266a612631612bb9565b858585808060200260200160405190810160405280939291908181526020018383602002808284375f920191909152506138b692505050565b507fb168c58f000000000000000000000000000000000000000000000000000000009392505050565b6002545f907c0100000000000000000000000000000000000000000000000000000000900460ff161561276957600c5473ffffffffffffffffffffffffffffffffffffffff163381148015906127305750333014801561272e57507fffffffffffffffffffffffffffffffffffffffffffffffffffffffffffffffac36013560601c73ffffffffffffffffffffffffffffffffffffffff8216145b155b15612767576040517f74f3606300000000000000000000000000000000000000000000000000000000815260040160405180910390fd5b505b5f612772612bb9565b9050611a63611a508261278486612c32565b6dffffffffffffffffffffffffffff169061399e565b6002545f907c0100000000000000000000000000000000000000000000000000000000900460ff16156127f9576040517f74f3606300000000000000000000000000000000000000000000000000000000815260040160405180910390fd5b600280547fffffff00ffffffffffffffffffffffffffffffffffffffffffffffffffffffff167c010000000000000000000000000000000000000000000000000000000017905561284983612e61565b5f612855601085612ed1565b73ffffffffffffffffffffffffffffffffffffffff86165f908152600d602052604090209092506124ef9150829086908690611c2790613699565b6002545f907c0100000000000000000000000000000000000000000000000000000000900460ff161561296657600c5473ffffffffffffffffffffffffffffffffffffffff1633811480159061292d5750333014801561292b57507fffffffffffffffffffffffffffffffffffffffffffffffffffffffffffffffac36013560601c73ffffffffffffffffffffffffffffffffffffffff8216145b155b15612964576040517f74f3606300000000000000000000000000000000000000000000000000000000815260040160405180910390fd5b505b610fab611a5061297d612977612bb9565b856139ac565b71ffffffffffffffffffffffffffffffffffff166135e9565b6002545f907c0100000000000000000000000000000000000000000000000000000000900460ff1615612a6c57600c5473ffffffffffffffffffffffffffffffffffffffff16338114801590612a3357503330148015612a3157507fffffffffffffffffffffffffffffffffffffffffffffffffffffffffffffffac36013560601c73ffffffffffffffffffffffffffffffffffffffff8216145b155b15612a6a576040517f74f3606300000000000000000000000000000000000000000000000000000000815260040160405180910390fd5b505b5073ffffffffffffffffffffffffffffffffffffffff9182165f908152600d602090815260408083209390941682526002909201909152205490565b6002545f907c0100000000000000000000000000000000000000000000000000000000900460ff1615612b7e57600c5473ffffffffffffffffffffffffffffffffffffffff16338114801590612b4557503330148015612b4357507fffffffffffffffffffffffffffffffffffffffffffffffffffffffffffffffac36013560601c73ffffffffffffffffffffffffffffffffffffffff8216145b155b15612b7c576040517f74f3606300000000000000000000000000000000000000000000000000000000815260040160405180910390fd5b505b5f612b87612bb9565b9050612bb3611a50828360e001516dffffffffffffffffffffffffffff16612c7b90919063ffffffff16565b91505090565b604080516101c0810182525f80825260208201819052918101829052606081018290526080810182905260a0810182905260c0810182905260e08101829052610100810182905261012081018290526101408101829052610160810182905261018081018290526101a0810191909152610f71816139f5565b5f6dffffffffffffffffffffffffffff821115610f71576040517f64e0647900000000000000000000000000000000000000000000000000000000815260040160405180910390fd5b5f805f612c8784613ea8565b9092509050612cb681836dffffffffffffffffffffffffffff88160281612cb057612cb06158ad565b04612c32565b95945050505050565b5f73ffffffffffffffffffffffffffffffffffffffff7f0000000000000000000000000000000000000000000000000000000000000000163303612db2576040517f18503a1e0000000000000000000000000000000000000000000000000000000081525f60048201819052907f000000000000000000000000000000000000000000000000000000000000000073ffffffffffffffffffffffffffffffffffffffff16906318503a1e906024016040805180830381865afa158015612d87573d5f803e3d5ffd5b505050506040513d601f19601f82011682018060405250810190612dab91906158da565b5092915050565b503390565b8273ffffffffffffffffffffffffffffffffffffffff168273ffffffffffffffffffffffffffffffffffffffff1603612def57505050565b73ffffffffffffffffffffffffffffffffffffffff8381165f818152600d60209081526040808320948716808452600290950182529182902085905590518481527f8c5be1e5ebec7d5bd14f71427d1e84f3dd0314c0f7b2291e5b200ac8c7c3b92591015b60405180910390a3505050565b73ffffffffffffffffffffffffffffffffffffffff81161580612e9a575073ffffffffffffffffffffffffffffffffffffffff81166001145b156111e8576040517f9b44163600000000000000000000000000000000000000000000000000000000815260040160405180910390fd5b604080516101c0810182525f80825260208201819052918101829052606081018290526080810182905260a0810182905260c0810182905260e08101829052610100810182905261012081018290526101408101829052610160810182905261018081018290526101a0810182905290612f4961319f565b9150612f596175bf851615613f22565b9050612f6b8261016001518583614083565b612f9873ffffffffffffffffffffffffffffffffffffffff8416600114612f9257836140aa565b816140aa565b816101a0015115801561300057507fffffffffffffffffffffffffffffffffffffffffffffffffffffffffffffffff826101200151148015612ffe57507fffffffffffffffffffffffffffffffffffffffffffffffffffffffffffffffff826101400151145b155b156115e05760016101a0830152600280547fffff00ffffffffffffffffffffffffffffffffffffffffffffffffffffffffff167d010000000000000000000000000000000000000000000000000000000000179055608082015160a08301516115e091906130819071ffffffffffffffffffffffffffffffffffff166135e9565b6001919082547bffffffffffffffffffffffffffffffffffffffffffffffffffffffff6dffffffffffffffffffffffffffff9283166e010000000000000000000000000000027fffffffff00000000000000000000000000000000000000000000000000000000909216929093169190911717167c0100000000000000000000000000000000000000000000000000000000179055565b5f8273ffffffffffffffffffffffffffffffffffffffff168473ffffffffffffffffffffffffffffffffffffffff160361317e576040517ff2fbfb2d00000000000000000000000000000000000000000000000000000000815260040160405180910390fd5b613189848684614207565b613194848484614345565b506001949350505050565b604080516101c0810182525f80825260208201819052918101829052606081018290526080810182905260a0810182905260c0810182905260e08101829052610100810182905261012081018290526101408101829052610160810182905261018081018290526101a0810191909152613218816139f5565b15611e105760608101516002805465ffffffffffff9092167fffffffffffffffffffffffffffffffffffffffffffffffffffff00000000000090921691909117905560e0810151600480546dffffffffffffffffffffffffffff9283167fffffffffffffffffffffffffffffffffffff000000000000000000000000000090911617905560c082015160a083015171ffffffffffffffffffffffffffffffffffff166e0100000000000000000000000000000291161760035561010081015160055590565b6006545f9073ffffffffffffffffffffffffffffffffffffffff811690760100000000000000000000000000000000000000000000900468ffffffffffffffffff168115610fe7575f808373ffffffffffffffffffffffffffffffffffffffff163061336a88608001516dffffffffffffffffffffffffffff166dffffffffffffffffffffffffffff1690565b61338e611a508a60a0015171ffffffffffffffffffffffffffffffffffff166135e9565b60405173ffffffffffffffffffffffffffffffffffffffff909316602484015260448301919091526064820152608401604080517fffffffffffffffffffffffffffffffffffffffffffffffffffffffffffffffe08184030181529181526020820180517bffffffffffffffffffffffffffffffffffffffffffffffffffffffff167fbca02c13000000000000000000000000000000000000000000000000000000001790525161343f9190615817565b5f604051808303815f865af19150503d805f8114613478576040519150601f19603f3d011682016040523d82523d5f602084013e61347d565b606091505b509150915081801561349157506020815110155b1561351957808060200190518101906134aa9190615907565b9250680fd278dfcb4529121f8311156134ca57680fd278dfcb4529121f92505b600680547fff000000000000000000ffffffffffffffffffffffffffffffffffffffffffff1676010000000000000000000000000000000000000000000068ffffffffffffffffff8616021790555b50509392505050565b60c08201517f80b61abbfc5f73cfe5cf93cec97a69ed20643dc6c6f1833b05a1560aa164e24c906dffffffffffffffffffffffffffff1661357d611a508560a0015171ffffffffffffffffffffffffffffffffffff166135e9565b60e08501516dffffffffffffffffffffffffffff1660808601516dffffffffffffffffffffffffffff16610100870151604080519586526020860194909452928401919091526060830152608082015260a081018390524260c082015260e00160405180910390a15050565b5f8171ffffffffffffffffffffffffffffffffffff165f0361360c57505f919050565b610fab61362c8371ffffffffffffffffffffffffffffffffffff16614778565b612c32565b5f8171ffffffffffffffffffffffffffffffffffff165f0361365457505f919050565b610fab6e01ffffffffffffffffffffffffffff601f84901c16612c32565b61368663ffffffff80851690849061479d16565b1561369057505050565b611679816147a8565b80545f906dffffffffffffffffffffffffffff16610fab565b6006545f9073ffffffffffffffffffffffffffffffffffffffff811690760100000000000000000000000000000000000000000000900468ffffffffffffffffff1681158015906137065750613706614880565b15610fe7575f808373ffffffffffffffffffffffffffffffffffffffff163061375088608001516dffffffffffffffffffffffffffff166dffffffffffffffffffffffffffff1690565b613774611a508a60a0015171ffffffffffffffffffffffffffffffffffff166135e9565b60405173ffffffffffffffffffffffffffffffffffffffff909316602484015260448301919091526064820152608401604080517fffffffffffffffffffffffffffffffffffffffffffffffffffffffffffffffe08184030181529181526020820180517bffffffffffffffffffffffffffffffffffffffffffffffffffffffff167f2e34c87200000000000000000000000000000000000000000000000000000000179052516138259190615817565b5f60405180830381855afa9150503d805f811461385d576040519150601f19603f3d011682016040523d82523d5f602084013e613862565b606091505b509150915081801561387657506020815110155b15613519578080602001905181019061388f9190615907565b9250680fd278dfcb4529121f8311156135195750680fd278dfcb4529121f95945050505050565b6138bf8361492e565b73ffffffffffffffffffffffffffffffffffffffff82165f908152600d602052604090205460701c717fffffffffffffffffffffffffffffffffff16806139065750505050565b5f6139138585845f61497f565b90505f805b845181101561396b5761394687878784815181106139385761393861591e565b60200260200101515f614b51565b613950908361589a565b9150828211156139635750505050505050565b600101613918565b506040517f34373fbc00000000000000000000000000000000000000000000000000000000815260040160405180910390fd5b5f610fe761362c8484614d9b565b73ffffffffffffffffffffffffffffffffffffffff81165f908152600d6020526040812054610fe7908490849060701c717fffffffffffffffffffffffffffffffffff16614dd7565b367fffffffffffffffffffffffffffffffffffffffffffffffffffffffffffffffec810135606090811c60408401527fffffffffffffffffffffffffffffffffffffffffffffffffffffffffffffffd8820135811c60208401527fffffffffffffffffffffffffffffffffffffffffffffffffffffffffffffffc490910135811c825260025465ffffffffffff811691830191909152660100000000000081046dffffffffffffffffffffffffffff1660808301525f90613ad19074010000000000000000000000000000000000000000900461ffff16614e45565b610120830152600254613b0190760100000000000000000000000000000000000000000000900461ffff16614e45565b6101408301526002547801000000000000000000000000000000000000000000000000810463ffffffff9081166101608501527d01000000000000000000000000000000000000000000000000000000000090910460ff1615156101a08401526003546dffffffffffffffffffffffffffff80821660c08601526e01000000000000000000000000000090910471ffffffffffffffffffffffffffffffffffff1660a085015260045490811660e0850152720100000000000000000000000000000000000090041661018083015260055461010083015260608201515f90613bf19065ffffffffffff164261594b565b905080156110195760065461010084015160a08501516001945074010000000000000000000000000000000000000000830461ffff1692760100000000000000000000000000000000000000000000900468ffffffffffffffffff16919071ffffffffffffffffffffffffffffffffffff165f8080613c816b033b2e3c9fd0803ce8000000808801908a90614e91565b9150915080613cb7578185029250818381613c9e57613c9e6158ad565b048503613cb7576b033b2e3c9fd0803ce8000000830494505b8484029250848381613ccb57613ccb6158ad565b048403613cea578961010001518381613ce657613ce66158ad565b0493505b50505060e087015160c088015160a08901516dffffffffffffffffffffffffffff92831692909116905f90651388000000009061ffff89169071ffffffffffffffffffffffffffffffffffff16613d41908761594b565b613d4b919061595e565b613d559190615975565b90508015613dd6575f613d6785614778565b60808c01516dffffffffffffffffffffffffffff16613d86919061589a565b9050613d92828261594b565b613d9c848361595e565b613da69190615975565b60c08c01519093506dffffffffffffffffffffffffffff16613dc8908461594b565b613dd2908561589a565b9350505b717fffffffffffffffffffffffffff800000008411613e9b57613df884614f63565b71ffffffffffffffffffffffffffffffffffff1660a08b01526101008a018590524265ffffffffffff1660608b015260c08a01516dffffffffffffffffffffffffffff168214158015613e5957506dffffffffffffffffffffffffffff8211155b15613e9b57613e6783612c32565b6dffffffffffffffffffffffffffff1660e08b0152613e8582612c32565b6dffffffffffffffffffffffffffff1660c08b01525b5050505050505050919050565b5f80620f4240613ed2611a508560a0015171ffffffffffffffffffffffffffffffffffff166135e9565b60808501516dffffffffffffffffffffffffffff1601019150620f4240613f1a8460c001516dffffffffffffffffffffffffffff166dffffffffffffffffffffffffffff1690565b019050915091565b5f3373ffffffffffffffffffffffffffffffffffffffff7f00000000000000000000000000000000000000000000000000000000000000001614613f6857613f686159ad565b5f807f000000000000000000000000000000000000000000000000000000000000000073ffffffffffffffffffffffffffffffffffffffff166318503a1e85613fb1575f613fb3565b305b6040517fffffffff0000000000000000000000000000000000000000000000000000000060e084901b16815273ffffffffffffffffffffffffffffffffffffffff90911660048201526024016040805180830381865afa158015614019573d5f803e3d5ffd5b505050506040513d601f19601f8201168201806040525081019061403d91906158da565b9150915083801561404c575080155b15612dab576040517f13790bf000000000000000000000000000000000000000000000000000000000815260040160405180910390fd5b61409763ffffffff80851690849061479d16565b156140a157505050565b61167981614fb0565b7fffffffffffffffffffffffffffffffffffffffffffffffffffffffffffffffff73ffffffffffffffffffffffffffffffffffffffff8216016140ef576140ef6159ad565b73ffffffffffffffffffffffffffffffffffffffff8116614181577f000000000000000000000000000000000000000000000000000000000000000073ffffffffffffffffffffffffffffffffffffffff1663a37d54af6040518163ffffffff1660e01b81526004015f604051808303815f87803b15801561416f575f80fd5b505af115801561130f573d5f803e3d5ffd5b6040517f30f3166700000000000000000000000000000000000000000000000000000000815273ffffffffffffffffffffffffffffffffffffffff82811660048301527f000000000000000000000000000000000000000000000000000000000000000016906330f31667906024015f604051808303815f87803b15801561416f575f80fd5b6dffffffffffffffffffffffffffff8116158061424f57508173ffffffffffffffffffffffffffffffffffffffff168373ffffffffffffffffffffffffffffffffffffffff16145b1561425957505050565b73ffffffffffffffffffffffffffffffffffffffff8084165f908152600d602090815260408083209386168352600284019091529020547fffffffffffffffffffffffffffffffffffffffffffffffffffffffffffffffff811461130f576dffffffffffffffffffffffffffff8316811015614301576040517f9f428ac400000000000000000000000000000000000000000000000000000000815260040160405180910390fd5b6dffffffffffffffffffffffffffff831673ffffffffffffffffffffffffffffffffffffffff85165f90815260028401602052604090209103908190555050505050565b73ffffffffffffffffffffffffffffffffffffffff8216614392576040517fa8af73b400000000000000000000000000000000000000000000000000000000815260040160405180910390fd5b6dffffffffffffffffffffffffffff81161561471d5773ffffffffffffffffffffffffffffffffffffffff83165f908152600d60205260408120908061440e83546dffffffffffffffffffffffffffff8116917f8000000000000000000000000000000000000000000000000000000000000000909116151590565b90925090506dffffffffffffffffffffffffffff8085169083161015614460576040517f7374809300000000000000000000000000000000000000000000000000000000815260040160405180910390fd5b5f6dffffffffffffffffffffffffffff8581169084160384547fffffffffffffffffffffffffffffffffffff0000000000000000000000000000166dffffffffffffffffffffffffffff8216178555905081156145965773ffffffffffffffffffffffffffffffffffffffff7f000000000000000000000000000000000000000000000000000000000000000016636fc4fdc1886dffffffffffffffffffffffffffff841661450d6150b7565b6040517fffffffff0000000000000000000000000000000000000000000000000000000060e086901b16815273ffffffffffffffffffffffffffffffffffffffff90931660048401526024830191909152151560448201526064015f604051808303815f87803b15801561457f575f80fd5b505af1158015614591573d5f803e3d5ffd5b505050505b73ffffffffffffffffffffffffffffffffffffffff86165f908152600d6020526040812080549095506dffffffffffffffffffffffffffff8116917f80000000000000000000000000000000000000000000000000000000000000009091161515906146028389615121565b87547fffffffffffffffffffffffffffffffffffff0000000000000000000000000000166dffffffffffffffffffffffffffff8216178855905081156147155773ffffffffffffffffffffffffffffffffffffffff7f000000000000000000000000000000000000000000000000000000000000000016636fc4fdc18a6dffffffffffffffffffffffffffff84166040517fffffffff0000000000000000000000000000000000000000000000000000000060e085901b16815273ffffffffffffffffffffffffffffffffffffffff909216600483015260248201525f60448201526064015f604051808303815f87803b1580156146fe575f80fd5b505af1158015614710573d5f803e3d5ffd5b505050505b505050505050505b73ffffffffffffffffffffffffffffffffffffffff8083169084167fddf252ad1be2c89b69c2b068fc378daa952ba7f163c4a11628f55a4df523b3ef6dffffffffffffffffffffffffffff8416604051908152602001612e54565b5f601f600161478b63800000008561589a565b614795919061594b565b901c92915050565b1663ffffffff161590565b6002547c0100000000000000000000000000000000000000000000000000000000900460ff1615614805576040517f74f3606300000000000000000000000000000000000000000000000000000000815260040160405180910390fd5b600280547fffffff00ffffffffffffffffffffffffffffffffffffffffffffffffffffffff167c010000000000000000000000000000000000000000000000000000000017905561485581614fb0565b50600280547fffffff00ffffffffffffffffffffffffffffffffffffffffffffffffffffffff169055565b6040517fcdd8ea780000000000000000000000000000000000000000000000000000000081523060048201525f907f000000000000000000000000000000000000000000000000000000000000000073ffffffffffffffffffffffffffffffffffffffff169063cdd8ea7890602401602060405180830381865afa15801561490a573d5f803e3d5ffd5b505050506040513d601f19601f820116820180604052508101906111fe9190615852565b602081015173ffffffffffffffffffffffffffffffffffffffff166111e8576040517f5b92337100000000000000000000000000000000000000000000000000000000815260040160405180910390fd5b5f80614992611a5061297d888888614dd7565b9050805f036149a4575f9150506116bd565b856040015173ffffffffffffffffffffffffffffffffffffffff16865f015173ffffffffffffffffffffffffffffffffffffffff16036149e657809150614b48565b8215614a9c576020860151865160408089015190517fae68676c0000000000000000000000000000000000000000000000000000000081526004810185905273ffffffffffffffffffffffffffffffffffffffff9283166024820152908216604482015291169063ae68676c90606401602060405180830381865afa158015614a71573d5f803e3d5ffd5b505050506040513d601f19601f82011682018060405250810190614a959190615907565b9150614b48565b6020860151865160408089015190517f0579e61f0000000000000000000000000000000000000000000000000000000081526004810185905273ffffffffffffffffffffffffffffffffffffffff92831660248201529082166044820152911690630579e61f906064016040805180830381865afa158015614b20573d5f803e3d5ffd5b505050506040513d601f19601f82011682018060405250810190614b4491906159da565b9250505b50949350505050565b5f80614b5d8484615142565b905061ffff8116614b71575f9150506116bd565b6040517f70a0823100000000000000000000000000000000000000000000000000000000815273ffffffffffffffffffffffffffffffffffffffff86811660048301525f91908616906370a0823190602401602060405180830381865afa158015614bde573d5f803e3d5ffd5b505050506040513d601f19601f82011682018060405250810190614c029190615907565b9050805f03614c15575f925050506116bd565b5f8415614cca5760208801516040808a015190517fae68676c0000000000000000000000000000000000000000000000000000000081526004810185905273ffffffffffffffffffffffffffffffffffffffff8981166024830152918216604482015291169063ae68676c90606401602060405180830381865afa158015614c9f573d5f803e3d5ffd5b505050506040513d601f19601f82011682018060405250810190614cc39190615907565b9050614d74565b60208801516040808a015190517f0579e61f0000000000000000000000000000000000000000000000000000000081526004810185905273ffffffffffffffffffffffffffffffffffffffff89811660248301529182166044820152911690630579e61f906064016040805180830381865afa158015614d4c573d5f803e3d5ffd5b505050506040513d601f19601f82011682018060405250810190614d7091906159da565b5090505b612710614d8561ffff85168361595e565b614d8f9190615975565b98975050505050505050565b5f805f614da784613ea8565b909250905081816dffffffffffffffffffffffffffff87160281614dcd57614dcd6158ad565b0495945050505050565b5f71ffffffffffffffffffffffffffffffffffff8216614df857505f610fe7565b61010084015173ffffffffffffffffffffffffffffffffffffffff84165f908152600d60205260409020600101546116bd9171ffffffffffffffffffffffffffffffffffff8516916151dc565b5f61ffff8216808203614e7a57507fffffffffffffffffffffffffffffffffffffffffffffffffffffffffffffffff92915050565b6064603f8216600a0a600683901c02049392505050565b5f80848015614f4657600185168015614eac57869350614eb0565b8493505b508360011c8560011c95505b8515614f40578660801c15614ed45760019250614f40565b86870281810181811015614eed57600194505050614f40565b8690049750506001861615614f35578684028488820414614f18578715614f18576001935050614f40565b81810181811015614f2e57600194505050614f40565b8690049450505b8560011c9550614ebc565b50611476565b848015614f55575f9350614f59565b8493505b5050935093915050565b5f717fffffffffffffffffffffffffff80000000821115610f71576040517f9388c33400000000000000000000000000000000000000000000000000000000815260040160405180910390fd5b600c5473ffffffffffffffffffffffffffffffffffffffff1680615000576040517f750f881700000000000000000000000000000000000000000000000000000000815260040160405180910390fd5b5f808273ffffffffffffffffffffffffffffffffffffffff165f368660405160200161502e939291906159fc565b604080517fffffffffffffffffffffffffffffffffffffffffffffffffffffffffffffffe08184030181529082905261506691615817565b5f604051808303815f865af19150503d805f811461509f576040519150601f19603f3d011682016040523d82523d5f602084013e6150a4565b606091505b509150915081611340576113408161520e565b5f7f000000000000000000000000000000000000000000000000000000000000000073ffffffffffffffffffffffffffffffffffffffff1663863789d76040518163ffffffff1660e01b8152600401602060405180830381865afa15801561490a573d5f803e3d5ffd5b5f610fe761362c6dffffffffffffffffffffffffffff80851690861661589a565b73ffffffffffffffffffffffffffffffffffffffff82165f908152600e60209081526040808320815160a081018352905461ffff808216835262010000820481169483019490945264010000000081049093169181019190915265ffffffffffff6601000000000000830416606082015263ffffffff6c0100000000000000000000000090920482166080820152610fe791849061524f16565b5f6116bd826151ff8571ffffffffffffffffffffffffffffffffffff881661595e565b6152099190615975565b614f63565b80511561521d57805181602001fd5b6040517f2082e20000000000000000000000000000000000000000000000000000000000815260040160405180910390fd5b5f8161525d57508151610fab565b826060015165ffffffffffff164210158061528857506020830151604084015161ffff908116911610155b1561529857506020820151610fab565b5f6152a8846040015161ffff1690565b61ffff1690505f6152be856020015161ffff1690565b61ffff1690505f42866060015165ffffffffffff16039050856080015163ffffffff168183850302816152f3576152f36158ad565b049190910195945050505050565b5f5b8381101561531b578181015183820152602001615303565b50505f910152565b602081525f8251806020840152615341816040850160208701615301565b601f017fffffffffffffffffffffffffffffffffffffffffffffffffffffffffffffffe0169190910160400192915050565b5f60208284031215615383575f80fd5b5035919050565b73ffffffffffffffffffffffffffffffffffffffff811681146111e8575f80fd5b5f80604083850312156153bc575f80fd5b82356153c78161538a565b946020939093013593505050565b5f805f606084860312156153e7575f80fd5b83356153f28161538a565b925060208401356154028161538a565b929592945050506040919091013590565b5f60208284031215615423575f80fd5b8135610fe78161538a565b5f806040838503121561543f575f80fd5b8235915060208301356154518161538a565b809150509250929050565b803561ffff81168114611a67575f80fd5b803563ffffffff81168114611a67575f80fd5b5f805f8060808587031215615493575f80fd5b843561549e8161538a565b93506154ac6020860161545c565b92506154ba6040860161545c565b91506154c86060860161546d565b905092959194509250565b5f805f604084860312156154e5575f80fd5b83359250602084013567ffffffffffffffff80821115615503575f80fd5b818601915086601f830112615516575f80fd5b813581811115615524575f80fd5b876020828501011115615535575f80fd5b6020830194508093505050509250925092565b5f60208284031215615558575f80fd5b610fe78261545c565b5f815180845260208085019450602084015f5b838110156155a657815173ffffffffffffffffffffffffffffffffffffffff1687529582019590820190600101615574565b509495945050505050565b602081525f610fe76020830184615561565b5f805f606084860312156155d5575f80fd5b83356155e08161538a565b925060208401356155f08161538a565b915060408401356156008161538a565b809150509250925092565b80151581146111e8575f80fd5b5f8060408385031215615629575f80fd5b82356156348161538a565b915060208301356154518161560b565b5f60208284031215615654575f80fd5b610fe78261546d565b5f805f6040848603121561566f575f80fd5b833561567a8161538a565b9250602084013567ffffffffffffffff80821115615696575f80fd5b818601915086601f8301126156a9575f80fd5b8135818111156156b7575f80fd5b8760208260051b8501011115615535575f80fd5b5f805f606084860312156156dd575f80fd5b8335925060208401356155f08161538a565b5f805f8060808587031215615702575f80fd5b843561570d8161538a565b9350602085013561571d8161538a565b93969395505050506040820135916060013590565b606081525f6157446060830186615561565b8281036020848101919091528551808352868201928201905f5b8181101561577a5784518352938301939183019160010161575e565b5050809350505050826040830152949350505050565b5f80604083850312156157a1575f80fd5b82356157ac8161538a565b915060208301356154518161538a565b5f80604083850312156157cd575f80fd5b82356157d88161538a565b91506157e66020840161546d565b90509250929050565b5f8060408385031215615800575f80fd5b6158098361545c565b91506157e66020840161545c565b5f8251615828818460208701615301565b9190910192915050565b5f60208284031215615842575f80fd5b815160ff81168114610fe7575f80fd5b5f60208284031215615862575f80fd5b8151610fe78161560b565b7f4e487b71000000000000000000000000000000000000000000000000000000005f52601160045260245ffd5b80820180821115610fab57610fab61586d565b7f4e487b71000000000000000000000000000000000000000000000000000000005f52601260045260245ffd5b5f80604083850312156158eb575f80fd5b82516158f68161538a565b60208401519092506154518161560b565b5f60208284031215615917575f80fd5b5051919050565b7f4e487b71000000000000000000000000000000000000000000000000000000005f52603260045260245ffd5b81810381811115610fab57610fab61586d565b8082028115828204841417610fab57610fab61586d565b5f826159a8577f4e487b71000000000000000000000000000000000000000000000000000000005f52601260045260245ffd5b500490565b7f4e487b71000000000000000000000000000000000000000000000000000000005f52600160045260245ffd5b5f80604083850312156159eb575f80fd5b505080516020909101519092909150565b8284823760609190911b7fffffffffffffffffffffffffffffffffffffffff00000000000000000000000016910190815260140191905056fea26469706673582212203d1e6ff553411d923aedce43bd7ecdb510f6d90bed7fdded6c220608361c6c6b64736f6c63430008180033",
    "linkReferences": {}
  },
  "methodIdentifiers": {
    "EVC()": "a70354a1",
    "LTVBorrow(address)": "bf58094d",
    "LTVFull(address)": "33708d0c",
    "LTVLiquidation(address)": "af5aaeeb",
    "LTVList()": "6a16ef84",
    "MODULE_BALANCE_FORWARDER()": "883e3875",
    "MODULE_BORROWING()": "14c054bc",
    "MODULE_GOVERNANCE()": "b4cd541b",
    "MODULE_INITIALIZE()": "ad80ad0b",
    "MODULE_LIQUIDATION()": "42895567",
    "MODULE_RISKMANAGER()": "7d5f2e4e",
    "MODULE_TOKEN()": "5fa23055",
    "MODULE_VAULT()": "e2f206e5",
    "accountLiquidity(address,bool)": "a824bf67",
    "accountLiquidityFull(address,bool)": "c7b0e3a3",
    "accumulatedFees()": "587f5ed7",
    "accumulatedFeesAssets()": "f6e50f58",
    "allowance(address,address)": "dd62ed3e",
    "approve(address,uint256)": "095ea7b3",
    "asset()": "38d52e0f",
    "balanceForwarderEnabled(address)": "e15c82ec",
    "balanceOf(address)": "70a08231",
    "balanceTrackerAddress()": "ece6a7fa",
    "borrow(uint256,address)": "4b3fd148",
    "caps()": "18e22d98",
    "cash()": "961be391",
    "checkAccountStatus(address,address[])": "b168c58f",
    "checkLiquidation(address,address,address)": "88aa6f12",
    "checkVaultStatus()": "4b3d1223",
    "configFlags()": "2b38a367",
    "convertFees()": "2b5335c3",
    "convertToAssets(uint256)": "07a2d13a",
    "convertToShares(uint256)": "c6e6f592",
    "creator()": "02d05d3f",
    "dToken()": "d9d7858a",
    "debtOf(address)": "d283e75f",
    "debtOfExact(address)": "ab49b7f1",
    "decimals()": "313ce567",
    "deposit(uint256,address)": "6e553f65",
    "disableBalanceForwarder()": "41233a98",
    "disableController()": "869e50c7",
    "enableBalanceForwarder()": "64b1cdd6",
    "feeReceiver()": "b3f00674",
    "flashLoan(uint256,bytes)": "5296a431",
    "governorAdmin()": "6ce98c29",
    "hookConfig()": "cf349b7d",
    "initialize(address)": "c4d66de8",
    "interestAccumulator()": "087a6007",
    "interestFee()": "a75df498",
    "interestRate()": "7c3a00fd",
    "interestRateModel()": "f3fdb15a",
    "liquidate(address,address,uint256,uint256)": "c1342574",
    "liquidationCoolOffTime()": "4abdb959",
    "maxDeposit(address)": "402d267d",
    "maxLiquidationDiscount()": "4f7e43df",
    "maxMint(address)": "c63d75b6",
    "maxRedeem(address)": "d905777e",
    "maxWithdraw(address)": "ce96cb77",
    "mint(uint256,address)": "94bf804d",
    "name()": "06fdde03",
    "oracle()": "7dc0d1d0",
    "permit2Address()": "c5224983",
    "previewDeposit(uint256)": "ef8b30f7",
    "previewMint(uint256)": "b3d7f6b9",
    "previewRedeem(uint256)": "4cdad506",
    "previewWithdraw(uint256)": "0a28a477",
    "protocolConfigAddress()": "539bd5bf",
    "protocolFeeReceiver()": "39a51be5",
    "protocolFeeShare()": "960b26a2",
    "pullDebt(uint256,address)": "aebde56b",
    "redeem(uint256,address,address)": "ba087652",
    "repay(uint256,address)": "acb70815",
    "repayWithShares(uint256,address)": "a9c8eb7e",
    "setCaps(uint16,uint16)": "d87f780f",
    "setConfigFlags(uint32)": "ada3d56f",
    "setFeeReceiver(address)": "efdcd974",
    "setGovernorAdmin(address)": "82ebd674",
    "setHookConfig(address,uint32)": "d1a3a308",
    "setInterestFee(uint16)": "60cb90ef",
    "setInterestRateModel(address)": "8bcd4016",
    "setLTV(address,uint16,uint16,uint32)": "4bca3d5b",
    "setLiquidationCoolOffTime(uint16)": "af06d3cf",
    "setMaxLiquidationDiscount(uint16)": "b4113ba7",
    "skim(uint256,address)": "8d56c639",
    "symbol()": "95d89b41",
    "totalAssets()": "01e1d114",
    "totalBorrows()": "47bd3718",
    "totalBorrowsExact()": "e388be7b",
    "totalSupply()": "18160ddd",
    "touch()": "a55526db",
    "transfer(address,uint256)": "a9059cbb",
    "transferFrom(address,address,uint256)": "23b872dd",
    "transferFromMax(address,address)": "cbfdd7e1",
    "unitOfAccount()": "3e833364",
    "viewDelegate()": "1fe8b953",
    "withdraw(uint256,address,address)": "b460af94"
  },
  "id": 71
}